{
	"contracts/MoneySaver.sol": {
		"MoneySaver": {
			"abi": [
				{
					"inputs": [
						{
							"internalType": "address",
							"name": "admin_",
							"type": "address"
						}
					],
					"stateMutability": "nonpayable",
					"type": "constructor"
				},
				{
					"inputs": [
						{
							"internalType": "string",
							"name": "name_",
							"type": "string"
						},
						{
							"internalType": "uint256",
							"name": "amount_",
							"type": "uint256"
						}
					],
					"name": "addEther",
					"outputs": [],
					"stateMutability": "payable",
					"type": "function"
				},
				{
					"inputs": [],
					"name": "admin",
					"outputs": [
						{
							"internalType": "address",
							"name": "",
							"type": "address"
						}
					],
					"stateMutability": "view",
					"type": "function"
				},
				{
					"inputs": [],
					"name": "counter",
					"outputs": [
						{
							"internalType": "uint256",
							"name": "",
							"type": "uint256"
						}
					],
					"stateMutability": "view",
					"type": "function"
				},
				{
					"inputs": [],
					"name": "getContributions",
					"outputs": [
						{
							"components": [
								{
									"internalType": "string",
									"name": "name",
									"type": "string"
								},
								{
									"internalType": "uint256",
									"name": "amount",
									"type": "uint256"
								}
							],
							"internalType": "struct MoneySaver.Saver[]",
							"name": "",
							"type": "tuple[]"
						}
					],
					"stateMutability": "view",
					"type": "function"
				},
				{
					"inputs": [
						{
							"internalType": "uint256",
							"name": "",
							"type": "uint256"
						}
					],
					"name": "savingsList",
					"outputs": [
						{
							"internalType": "string",
							"name": "name",
							"type": "string"
						},
						{
							"internalType": "uint256",
							"name": "amount",
							"type": "uint256"
						}
					],
					"stateMutability": "view",
					"type": "function"
				},
				{
					"inputs": [
						{
							"internalType": "uint256",
							"name": "etherAmount_",
							"type": "uint256"
						},
						{
							"internalType": "address",
							"name": "wallet",
							"type": "address"
						}
					],
					"name": "withdrawEther",
					"outputs": [],
					"stateMutability": "nonpayable",
					"type": "function"
				}
			],
			"devdoc": {
				"kind": "dev",
				"methods": {},
				"version": 1
			},
			"evm": {
				"assembly": "    /* \"contracts/MoneySaver.sol\":71:1288  contract MoneySaver {... */\n  mstore(0x40, 0x80)\n    /* \"contracts/MoneySaver.sol\":287:369  constructor(address admin_){... */\n  callvalue\n  dup1\n  iszero\n  tag_1\n  jumpi\n  0x00\n  dup1\n  revert\ntag_1:\n  pop\n  mload(0x40)\n  sub(codesize, bytecodeSize)\n  dup1\n  bytecodeSize\n  dup4\n  codecopy\n  dup2\n  dup2\n  add\n  0x40\n  mstore\n  dup2\n  add\n  swap1\n  tag_2\n  swap2\n  swap1\n  tag_3\n  jump\t// in\ntag_2:\n    /* \"contracts/MoneySaver.sol\":333:339  admin_ */\n  dup1\n    /* \"contracts/MoneySaver.sol\":325:330  admin */\n  0x00\n  dup1\n    /* \"contracts/MoneySaver.sol\":325:339  admin = admin_ */\n  0x0100\n  exp\n  dup2\n  sload\n  dup2\n  0xffffffffffffffffffffffffffffffffffffffff\n  mul\n  not\n  and\n  swap1\n  dup4\n  0xffffffffffffffffffffffffffffffffffffffff\n  and\n  mul\n  or\n  swap1\n  sstore\n  pop\n    /* \"contracts/MoneySaver.sol\":360:361  0 */\n  0x00\n    /* \"contracts/MoneySaver.sol\":350:357  counter */\n  0x01\n    /* \"contracts/MoneySaver.sol\":350:361  counter = 0 */\n  dup2\n  swap1\n  sstore\n  pop\n    /* \"contracts/MoneySaver.sol\":287:369  constructor(address admin_){... */\n  pop\n    /* \"contracts/MoneySaver.sol\":71:1288  contract MoneySaver {... */\n  jump(tag_6)\n    /* \"#utility.yul\":88:205   */\ntag_8:\n    /* \"#utility.yul\":197:198   */\n  0x00\n    /* \"#utility.yul\":194:195   */\n  dup1\n    /* \"#utility.yul\":187:199   */\n  revert\n    /* \"#utility.yul\":334:460   */\ntag_10:\n    /* \"#utility.yul\":371:378   */\n  0x00\n    /* \"#utility.yul\":411:453   */\n  0xffffffffffffffffffffffffffffffffffffffff\n    /* \"#utility.yul\":404:409   */\n  dup3\n    /* \"#utility.yul\":400:454   */\n  and\n    /* \"#utility.yul\":389:454   */\n  swap1\n  pop\n    /* \"#utility.yul\":334:460   */\n  swap2\n  swap1\n  pop\n  jump\t// out\n    /* \"#utility.yul\":466:562   */\ntag_11:\n    /* \"#utility.yul\":503:510   */\n  0x00\n    /* \"#utility.yul\":532:556   */\n  tag_20\n    /* \"#utility.yul\":550:555   */\n  dup3\n    /* \"#utility.yul\":532:556   */\n  tag_10\n  jump\t// in\ntag_20:\n    /* \"#utility.yul\":521:556   */\n  swap1\n  pop\n    /* \"#utility.yul\":466:562   */\n  swap2\n  swap1\n  pop\n  jump\t// out\n    /* \"#utility.yul\":568:690   */\ntag_12:\n    /* \"#utility.yul\":641:665   */\n  tag_22\n    /* \"#utility.yul\":659:664   */\n  dup2\n    /* \"#utility.yul\":641:665   */\n  tag_11\n  jump\t// in\ntag_22:\n    /* \"#utility.yul\":634:639   */\n  dup2\n    /* \"#utility.yul\":631:666   */\n  eq\n    /* \"#utility.yul\":621:684   */\n  tag_23\n  jumpi\n    /* \"#utility.yul\":680:681   */\n  0x00\n    /* \"#utility.yul\":677:678   */\n  dup1\n    /* \"#utility.yul\":670:682   */\n  revert\n    /* \"#utility.yul\":621:684   */\ntag_23:\n    /* \"#utility.yul\":568:690   */\n  pop\n  jump\t// out\n    /* \"#utility.yul\":696:839   */\ntag_13:\n    /* \"#utility.yul\":753:758   */\n  0x00\n    /* \"#utility.yul\":784:790   */\n  dup2\n    /* \"#utility.yul\":778:791   */\n  mload\n    /* \"#utility.yul\":769:791   */\n  swap1\n  pop\n    /* \"#utility.yul\":800:833   */\n  tag_25\n    /* \"#utility.yul\":827:832   */\n  dup2\n    /* \"#utility.yul\":800:833   */\n  tag_12\n  jump\t// in\ntag_25:\n    /* \"#utility.yul\":696:839   */\n  swap3\n  swap2\n  pop\n  pop\n  jump\t// out\n    /* \"#utility.yul\":845:1196   */\ntag_3:\n    /* \"#utility.yul\":915:921   */\n  0x00\n    /* \"#utility.yul\":964:966   */\n  0x20\n    /* \"#utility.yul\":952:961   */\n  dup3\n    /* \"#utility.yul\":943:950   */\n  dup5\n    /* \"#utility.yul\":939:962   */\n  sub\n    /* \"#utility.yul\":935:967   */\n  slt\n    /* \"#utility.yul\":932:1051   */\n  iszero\n  tag_27\n  jumpi\n    /* \"#utility.yul\":970:1049   */\n  tag_28\n  tag_8\n  jump\t// in\ntag_28:\n    /* \"#utility.yul\":932:1051   */\ntag_27:\n    /* \"#utility.yul\":1090:1091   */\n  0x00\n    /* \"#utility.yul\":1115:1179   */\n  tag_29\n    /* \"#utility.yul\":1171:1178   */\n  dup5\n    /* \"#utility.yul\":1162:1168   */\n  dup3\n    /* \"#utility.yul\":1151:1160   */\n  dup6\n    /* \"#utility.yul\":1147:1169   */\n  add\n    /* \"#utility.yul\":1115:1179   */\n  tag_13\n  jump\t// in\ntag_29:\n    /* \"#utility.yul\":1105:1179   */\n  swap2\n  pop\n    /* \"#utility.yul\":1061:1189   */\n  pop\n    /* \"#utility.yul\":845:1196   */\n  swap3\n  swap2\n  pop\n  pop\n  jump\t// out\n    /* \"contracts/MoneySaver.sol\":71:1288  contract MoneySaver {... */\ntag_6:\n  dataSize(sub_0)\n  dup1\n  dataOffset(sub_0)\n  0x00\n  codecopy\n  0x00\n  return\nstop\n\nsub_0: assembly {\n        /* \"contracts/MoneySaver.sol\":71:1288  contract MoneySaver {... */\n      mstore(0x40, 0x80)\n      jumpi(tag_1, lt(calldatasize, 0x04))\n      shr(0xe0, calldataload(0x00))\n      dup1\n      0x3b3f07dd\n      eq\n      tag_2\n      jumpi\n      dup1\n      0x61bc221a\n      eq\n      tag_3\n      jumpi\n      dup1\n      0xb077a31f\n      eq\n      tag_4\n      jumpi\n      dup1\n      0xce56c454\n      eq\n      tag_5\n      jumpi\n      dup1\n      0xdda0a81a\n      eq\n      tag_6\n      jumpi\n      dup1\n      0xf851a440\n      eq\n      tag_7\n      jumpi\n    tag_1:\n      0x00\n      dup1\n      revert\n        /* \"contracts/MoneySaver.sol\":521:775  function addEther(string memory name_, uint256 amount_) external payable {... */\n    tag_2:\n      tag_8\n      0x04\n      dup1\n      calldatasize\n      sub\n      dup2\n      add\n      swap1\n      tag_9\n      swap2\n      swap1\n      tag_10\n      jump\t// in\n    tag_9:\n      tag_11\n      jump\t// in\n    tag_8:\n      stop\n        /* \"contracts/MoneySaver.sol\":127:149  uint256 public counter */\n    tag_3:\n      callvalue\n      dup1\n      iszero\n      tag_12\n      jumpi\n      0x00\n      dup1\n      revert\n    tag_12:\n      pop\n      tag_13\n      tag_14\n      jump\t// in\n    tag_13:\n      mload(0x40)\n      tag_15\n      swap2\n      swap1\n      tag_16\n      jump\t// in\n    tag_15:\n      mload(0x40)\n      dup1\n      swap2\n      sub\n      swap1\n      return\n        /* \"contracts/MoneySaver.sol\":234:278  mapping(uint256 => Saver) public savingsList */\n    tag_4:\n      callvalue\n      dup1\n      iszero\n      tag_17\n      jumpi\n      0x00\n      dup1\n      revert\n    tag_17:\n      pop\n      tag_18\n      0x04\n      dup1\n      calldatasize\n      sub\n      dup2\n      add\n      swap1\n      tag_19\n      swap2\n      swap1\n      tag_20\n      jump\t// in\n    tag_19:\n      tag_21\n      jump\t// in\n    tag_18:\n      mload(0x40)\n      tag_22\n      swap3\n      swap2\n      swap1\n      tag_23\n      jump\t// in\n    tag_22:\n      mload(0x40)\n      dup1\n      swap2\n      sub\n      swap1\n      return\n        /* \"contracts/MoneySaver.sol\":783:991  function withdrawEther(uint256 etherAmount_, address wallet) external onlyAdmin {... */\n    tag_5:\n      callvalue\n      dup1\n      iszero\n      tag_24\n      jumpi\n      0x00\n      dup1\n      revert\n    tag_24:\n      pop\n      tag_25\n      0x04\n      dup1\n      calldatasize\n      sub\n      dup2\n      add\n      swap1\n      tag_26\n      swap2\n      swap1\n      tag_27\n      jump\t// in\n    tag_26:\n      tag_28\n      jump\t// in\n    tag_25:\n      stop\n        /* \"contracts/MoneySaver.sol\":999:1283  function getContributions() external view onlyAdmin returns(Saver[] memory){... */\n    tag_6:\n      callvalue\n      dup1\n      iszero\n      tag_29\n      jumpi\n      0x00\n      dup1\n      revert\n    tag_29:\n      pop\n      tag_30\n      tag_31\n      jump\t// in\n    tag_30:\n      mload(0x40)\n      tag_32\n      swap2\n      swap1\n      tag_33\n      jump\t// in\n    tag_32:\n      mload(0x40)\n      dup1\n      swap2\n      sub\n      swap1\n      return\n        /* \"contracts/MoneySaver.sol\":100:120  address public admin */\n    tag_7:\n      callvalue\n      dup1\n      iszero\n      tag_34\n      jumpi\n      0x00\n      dup1\n      revert\n    tag_34:\n      pop\n      tag_35\n      tag_36\n      jump\t// in\n    tag_35:\n      mload(0x40)\n      tag_37\n      swap2\n      swap1\n      tag_38\n      jump\t// in\n    tag_37:\n      mload(0x40)\n      dup1\n      swap2\n      sub\n      swap1\n      return\n        /* \"contracts/MoneySaver.sol\":521:775  function addEther(string memory name_, uint256 amount_) external payable {... */\n    tag_11:\n        /* \"contracts/MoneySaver.sol\":605:626  Saver memory newSaver */\n      0x00\n        /* \"contracts/MoneySaver.sol\":629:703  Saver({... */\n      mload(0x40)\n      dup1\n      0x40\n      add\n      0x40\n      mstore\n      dup1\n        /* \"contracts/MoneySaver.sol\":656:661  name_ */\n      dup5\n        /* \"contracts/MoneySaver.sol\":629:703  Saver({... */\n      dup2\n      mstore\n      0x20\n      add\n        /* \"contracts/MoneySaver.sol\":684:691  amount_ */\n      dup4\n        /* \"contracts/MoneySaver.sol\":629:703  Saver({... */\n      dup2\n      mstore\n      pop\n        /* \"contracts/MoneySaver.sol\":605:703  Saver memory newSaver = Saver({... */\n      swap1\n      pop\n        /* \"contracts/MoneySaver.sol\":739:747  newSaver */\n      dup1\n        /* \"contracts/MoneySaver.sol\":716:727  savingsList */\n      0x02\n        /* \"contracts/MoneySaver.sol\":716:736  savingsList[counter] */\n      0x00\n        /* \"contracts/MoneySaver.sol\":728:735  counter */\n      sload(0x01)\n        /* \"contracts/MoneySaver.sol\":716:736  savingsList[counter] */\n      dup2\n      mstore\n      0x20\n      add\n      swap1\n      dup2\n      mstore\n      0x20\n      add\n      0x00\n      keccak256\n        /* \"contracts/MoneySaver.sol\":716:747  savingsList[counter] = newSaver */\n      0x00\n      dup3\n      add\n      mload\n      dup2\n      0x00\n      add\n      swap1\n      dup2\n      tag_40\n      swap2\n      swap1\n      tag_41\n      jump\t// in\n    tag_40:\n      pop\n      0x20\n      dup3\n      add\n      mload\n      dup2\n      0x01\n      add\n      sstore\n      swap1\n      pop\n      pop\n        /* \"contracts/MoneySaver.sol\":758:765  counter */\n      0x01\n      0x00\n        /* \"contracts/MoneySaver.sol\":758:767  counter++ */\n      dup2\n      sload\n      dup1\n      swap3\n      swap2\n      swap1\n      tag_42\n      swap1\n      tag_43\n      jump\t// in\n    tag_42:\n      swap2\n      swap1\n      pop\n      sstore\n      pop\n        /* \"contracts/MoneySaver.sol\":594:775  {... */\n      pop\n        /* \"contracts/MoneySaver.sol\":521:775  function addEther(string memory name_, uint256 amount_) external payable {... */\n      pop\n      pop\n      jump\t// out\n        /* \"contracts/MoneySaver.sol\":127:149  uint256 public counter */\n    tag_14:\n      sload(0x01)\n      dup2\n      jump\t// out\n        /* \"contracts/MoneySaver.sol\":234:278  mapping(uint256 => Saver) public savingsList */\n    tag_21:\n      mstore(0x20, 0x02)\n      dup1\n      0x00\n      mstore\n      keccak256(0x00, 0x40)\n      0x00\n      swap2\n      pop\n      swap1\n      pop\n      dup1\n      0x00\n      add\n      dup1\n      sload\n      tag_44\n      swap1\n      tag_45\n      jump\t// in\n    tag_44:\n      dup1\n      0x1f\n      add\n      0x20\n      dup1\n      swap2\n      div\n      mul\n      0x20\n      add\n      mload(0x40)\n      swap1\n      dup2\n      add\n      0x40\n      mstore\n      dup1\n      swap3\n      swap2\n      swap1\n      dup2\n      dup2\n      mstore\n      0x20\n      add\n      dup3\n      dup1\n      sload\n      tag_46\n      swap1\n      tag_45\n      jump\t// in\n    tag_46:\n      dup1\n      iszero\n      tag_47\n      jumpi\n      dup1\n      0x1f\n      lt\n      tag_48\n      jumpi\n      0x0100\n      dup1\n      dup4\n      sload\n      div\n      mul\n      dup4\n      mstore\n      swap2\n      0x20\n      add\n      swap2\n      jump(tag_47)\n    tag_48:\n      dup3\n      add\n      swap2\n      swap1\n      0x00\n      mstore\n      keccak256(0x00, 0x20)\n      swap1\n    tag_49:\n      dup2\n      sload\n      dup2\n      mstore\n      swap1\n      0x01\n      add\n      swap1\n      0x20\n      add\n      dup1\n      dup4\n      gt\n      tag_49\n      jumpi\n      dup3\n      swap1\n      sub\n      0x1f\n      and\n      dup3\n      add\n      swap2\n    tag_47:\n      pop\n      pop\n      pop\n      pop\n      pop\n      swap1\n      dup1\n      0x01\n      add\n      sload\n      swap1\n      pop\n      dup3\n      jump\t// out\n        /* \"contracts/MoneySaver.sol\":783:991  function withdrawEther(uint256 etherAmount_, address wallet) external onlyAdmin {... */\n    tag_28:\n        /* \"contracts/MoneySaver.sol\":431:436  admin */\n      0x00\n      dup1\n      sload\n      swap1\n      0x0100\n      exp\n      swap1\n      div\n      0xffffffffffffffffffffffffffffffffffffffff\n      and\n        /* \"contracts/MoneySaver.sol\":417:436  msg.sender == admin */\n      0xffffffffffffffffffffffffffffffffffffffff\n      and\n        /* \"contracts/MoneySaver.sol\":417:427  msg.sender */\n      caller\n        /* \"contracts/MoneySaver.sol\":417:436  msg.sender == admin */\n      0xffffffffffffffffffffffffffffffffffffffff\n      and\n      eq\n        /* \"contracts/MoneySaver.sol\":408:492  require (msg.sender == admin, \"For deposit or withdraw Ether you must be the admin\") */\n      tag_51\n      jumpi\n      mload(0x40)\n      0x08c379a000000000000000000000000000000000000000000000000000000000\n      dup2\n      mstore\n      0x04\n      add\n      tag_52\n      swap1\n      tag_53\n      jump\t// in\n    tag_52:\n      mload(0x40)\n      dup1\n      swap2\n      sub\n      swap1\n      revert\n    tag_51:\n        /* \"contracts/MoneySaver.sol\":875:887  bool success */\n      0x00\n        /* \"contracts/MoneySaver.sol\":892:898  wallet */\n      dup2\n        /* \"contracts/MoneySaver.sol\":892:903  wallet.call */\n      0xffffffffffffffffffffffffffffffffffffffff\n      and\n        /* \"contracts/MoneySaver.sol\":911:923  etherAmount_ */\n      dup4\n        /* \"contracts/MoneySaver.sol\":892:928  wallet.call{value: etherAmount_}(\"\") */\n      mload(0x40)\n      tag_55\n      swap1\n      tag_56\n      jump\t// in\n    tag_55:\n      0x00\n      mload(0x40)\n      dup1\n      dup4\n      sub\n      dup2\n      dup6\n      dup8\n      gas\n      call\n      swap3\n      pop\n      pop\n      pop\n      returndatasize\n      dup1\n      0x00\n      dup2\n      eq\n      tag_59\n      jumpi\n      mload(0x40)\n      swap2\n      pop\n      and(add(returndatasize, 0x3f), not(0x1f))\n      dup3\n      add\n      0x40\n      mstore\n      returndatasize\n      dup3\n      mstore\n      returndatasize\n      0x00\n      0x20\n      dup5\n      add\n      returndatacopy\n      jump(tag_58)\n    tag_59:\n      0x60\n      swap2\n      pop\n    tag_58:\n      pop\n        /* \"contracts/MoneySaver.sol\":874:928  (bool success,) = wallet.call{value: etherAmount_}(\"\") */\n      pop\n      swap1\n      pop\n        /* \"contracts/MoneySaver.sol\":947:954  success */\n      dup1\n        /* \"contracts/MoneySaver.sol\":939:983  require(success, \"Failed to withdraw Ether\") */\n      tag_60\n      jumpi\n      mload(0x40)\n      0x08c379a000000000000000000000000000000000000000000000000000000000\n      dup2\n      mstore\n      0x04\n      add\n      tag_61\n      swap1\n      tag_62\n      jump\t// in\n    tag_61:\n      mload(0x40)\n      dup1\n      swap2\n      sub\n      swap1\n      revert\n    tag_60:\n        /* \"contracts/MoneySaver.sol\":863:991  {... */\n      pop\n        /* \"contracts/MoneySaver.sol\":783:991  function withdrawEther(uint256 etherAmount_, address wallet) external onlyAdmin {... */\n      pop\n      pop\n      jump\t// out\n        /* \"contracts/MoneySaver.sol\":999:1283  function getContributions() external view onlyAdmin returns(Saver[] memory){... */\n    tag_31:\n        /* \"contracts/MoneySaver.sol\":1059:1073  Saver[] memory */\n      0x60\n        /* \"contracts/MoneySaver.sol\":431:436  admin */\n      0x00\n      dup1\n      sload\n      swap1\n      0x0100\n      exp\n      swap1\n      div\n      0xffffffffffffffffffffffffffffffffffffffff\n      and\n        /* \"contracts/MoneySaver.sol\":417:436  msg.sender == admin */\n      0xffffffffffffffffffffffffffffffffffffffff\n      and\n        /* \"contracts/MoneySaver.sol\":417:427  msg.sender */\n      caller\n        /* \"contracts/MoneySaver.sol\":417:436  msg.sender == admin */\n      0xffffffffffffffffffffffffffffffffffffffff\n      and\n      eq\n        /* \"contracts/MoneySaver.sol\":408:492  require (msg.sender == admin, \"For deposit or withdraw Ether you must be the admin\") */\n      tag_64\n      jumpi\n      mload(0x40)\n      0x08c379a000000000000000000000000000000000000000000000000000000000\n      dup2\n      mstore\n      0x04\n      add\n      tag_65\n      swap1\n      tag_53\n      jump\t// in\n    tag_65:\n      mload(0x40)\n      dup1\n      swap2\n      sub\n      swap1\n      revert\n    tag_64:\n        /* \"contracts/MoneySaver.sol\":1085:1112  Saver[] memory savingsArray */\n      0x00\n        /* \"contracts/MoneySaver.sol\":1127:1134  counter */\n      sload(0x01)\n        /* \"contracts/MoneySaver.sol\":1115:1135  new Saver[](counter) */\n      0xffffffffffffffff\n      dup2\n      gt\n      iszero\n      tag_67\n      jumpi\n      tag_68\n      tag_69\n      jump\t// in\n    tag_68:\n    tag_67:\n      mload(0x40)\n      swap1\n      dup1\n      dup3\n      mstore\n      dup1\n      0x20\n      mul\n      0x20\n      add\n      dup3\n      add\n      0x40\n      mstore\n      dup1\n      iszero\n      tag_70\n      jumpi\n      dup2\n      0x20\n      add\n    tag_71:\n      tag_72\n      tag_73\n      jump\t// in\n    tag_72:\n      dup2\n      mstore\n      0x20\n      add\n      swap1\n      0x01\n      swap1\n      sub\n      swap1\n      dup2\n      tag_71\n      jumpi\n      swap1\n      pop\n    tag_70:\n      pop\n        /* \"contracts/MoneySaver.sol\":1085:1135  Saver[] memory savingsArray = new Saver[](counter) */\n      swap1\n      pop\n        /* \"contracts/MoneySaver.sol\":1153:1162  uint256 i */\n      0x00\n        /* \"contracts/MoneySaver.sol\":1148:1246  for (uint256 i = 0; i < counter; i ++) {... */\n    tag_74:\n        /* \"contracts/MoneySaver.sol\":1172:1179  counter */\n      sload(0x01)\n        /* \"contracts/MoneySaver.sol\":1168:1169  i */\n      dup2\n        /* \"contracts/MoneySaver.sol\":1168:1179  i < counter */\n      lt\n        /* \"contracts/MoneySaver.sol\":1148:1246  for (uint256 i = 0; i < counter; i ++) {... */\n      iszero\n      tag_75\n      jumpi\n        /* \"contracts/MoneySaver.sol\":1220:1231  savingsList */\n      0x02\n        /* \"contracts/MoneySaver.sol\":1220:1234  savingsList[i] */\n      0x00\n        /* \"contracts/MoneySaver.sol\":1232:1233  i */\n      dup3\n        /* \"contracts/MoneySaver.sol\":1220:1234  savingsList[i] */\n      dup2\n      mstore\n      0x20\n      add\n      swap1\n      dup2\n      mstore\n      0x20\n      add\n      0x00\n      keccak256\n        /* \"contracts/MoneySaver.sol\":1202:1234  savingsArray[i] = savingsList[i] */\n      mload(0x40)\n      dup1\n      0x40\n      add\n      0x40\n      mstore\n      swap1\n      dup2\n      0x00\n      dup3\n      add\n      dup1\n      sload\n      tag_77\n      swap1\n      tag_45\n      jump\t// in\n    tag_77:\n      dup1\n      0x1f\n      add\n      0x20\n      dup1\n      swap2\n      div\n      mul\n      0x20\n      add\n      mload(0x40)\n      swap1\n      dup2\n      add\n      0x40\n      mstore\n      dup1\n      swap3\n      swap2\n      swap1\n      dup2\n      dup2\n      mstore\n      0x20\n      add\n      dup3\n      dup1\n      sload\n      tag_78\n      swap1\n      tag_45\n      jump\t// in\n    tag_78:\n      dup1\n      iszero\n      tag_79\n      jumpi\n      dup1\n      0x1f\n      lt\n      tag_80\n      jumpi\n      0x0100\n      dup1\n      dup4\n      sload\n      div\n      mul\n      dup4\n      mstore\n      swap2\n      0x20\n      add\n      swap2\n      jump(tag_79)\n    tag_80:\n      dup3\n      add\n      swap2\n      swap1\n      0x00\n      mstore\n      keccak256(0x00, 0x20)\n      swap1\n    tag_81:\n      dup2\n      sload\n      dup2\n      mstore\n      swap1\n      0x01\n      add\n      swap1\n      0x20\n      add\n      dup1\n      dup4\n      gt\n      tag_81\n      jumpi\n      dup3\n      swap1\n      sub\n      0x1f\n      and\n      dup3\n      add\n      swap2\n    tag_79:\n      pop\n      pop\n      pop\n      pop\n      pop\n      dup2\n      mstore\n      0x20\n      add\n      0x01\n      dup3\n      add\n      sload\n      dup2\n      mstore\n      pop\n      pop\n        /* \"contracts/MoneySaver.sol\":1202:1214  savingsArray */\n      dup3\n        /* \"contracts/MoneySaver.sol\":1215:1216  i */\n      dup3\n        /* \"contracts/MoneySaver.sol\":1202:1217  savingsArray[i] */\n      dup2\n      mload\n      dup2\n      lt\n      tag_82\n      jumpi\n      tag_83\n      tag_84\n      jump\t// in\n    tag_83:\n    tag_82:\n      0x20\n      mul\n      0x20\n      add\n      add\n        /* \"contracts/MoneySaver.sol\":1202:1234  savingsArray[i] = savingsList[i] */\n      dup2\n      swap1\n      mstore\n      pop\n        /* \"contracts/MoneySaver.sol\":1181:1185  i ++ */\n      dup1\n      dup1\n      0x01\n      add\n      swap2\n      pop\n      pop\n        /* \"contracts/MoneySaver.sol\":1148:1246  for (uint256 i = 0; i < counter; i ++) {... */\n      jump(tag_74)\n    tag_75:\n      pop\n        /* \"contracts/MoneySaver.sol\":1263:1275  savingsArray */\n      dup1\n        /* \"contracts/MoneySaver.sol\":1256:1275  return savingsArray */\n      swap2\n      pop\n      pop\n        /* \"contracts/MoneySaver.sol\":999:1283  function getContributions() external view onlyAdmin returns(Saver[] memory){... */\n      swap1\n      jump\t// out\n        /* \"contracts/MoneySaver.sol\":100:120  address public admin */\n    tag_36:\n      0x00\n      dup1\n      sload\n      swap1\n      0x0100\n      exp\n      swap1\n      div\n      0xffffffffffffffffffffffffffffffffffffffff\n      and\n      dup2\n      jump\t// out\n    tag_73:\n      mload(0x40)\n      dup1\n      0x40\n      add\n      0x40\n      mstore\n      dup1\n      0x60\n      dup2\n      mstore\n      0x20\n      add\n      0x00\n      dup2\n      mstore\n      pop\n      swap1\n      jump\t// out\n        /* \"#utility.yul\":7:82   */\n    tag_85:\n        /* \"#utility.yul\":40:46   */\n      0x00\n        /* \"#utility.yul\":73:75   */\n      0x40\n        /* \"#utility.yul\":67:76   */\n      mload\n        /* \"#utility.yul\":57:76   */\n      swap1\n      pop\n        /* \"#utility.yul\":7:82   */\n      swap1\n      jump\t// out\n        /* \"#utility.yul\":88:205   */\n    tag_86:\n        /* \"#utility.yul\":197:198   */\n      0x00\n        /* \"#utility.yul\":194:195   */\n      dup1\n        /* \"#utility.yul\":187:199   */\n      revert\n        /* \"#utility.yul\":211:328   */\n    tag_87:\n        /* \"#utility.yul\":320:321   */\n      0x00\n        /* \"#utility.yul\":317:318   */\n      dup1\n        /* \"#utility.yul\":310:322   */\n      revert\n        /* \"#utility.yul\":334:451   */\n    tag_88:\n        /* \"#utility.yul\":443:444   */\n      0x00\n        /* \"#utility.yul\":440:441   */\n      dup1\n        /* \"#utility.yul\":433:445   */\n      revert\n        /* \"#utility.yul\":457:574   */\n    tag_89:\n        /* \"#utility.yul\":566:567   */\n      0x00\n        /* \"#utility.yul\":563:564   */\n      dup1\n        /* \"#utility.yul\":556:568   */\n      revert\n        /* \"#utility.yul\":580:682   */\n    tag_90:\n        /* \"#utility.yul\":621:627   */\n      0x00\n        /* \"#utility.yul\":672:674   */\n      0x1f\n        /* \"#utility.yul\":668:675   */\n      not\n        /* \"#utility.yul\":663:665   */\n      0x1f\n        /* \"#utility.yul\":656:661   */\n      dup4\n        /* \"#utility.yul\":652:666   */\n      add\n        /* \"#utility.yul\":648:676   */\n      and\n        /* \"#utility.yul\":638:676   */\n      swap1\n      pop\n        /* \"#utility.yul\":580:682   */\n      swap2\n      swap1\n      pop\n      jump\t// out\n        /* \"#utility.yul\":688:868   */\n    tag_69:\n        /* \"#utility.yul\":736:813   */\n      0x4e487b7100000000000000000000000000000000000000000000000000000000\n        /* \"#utility.yul\":733:734   */\n      0x00\n        /* \"#utility.yul\":726:814   */\n      mstore\n        /* \"#utility.yul\":833:837   */\n      0x41\n        /* \"#utility.yul\":830:831   */\n      0x04\n        /* \"#utility.yul\":823:838   */\n      mstore\n        /* \"#utility.yul\":857:861   */\n      0x24\n        /* \"#utility.yul\":854:855   */\n      0x00\n        /* \"#utility.yul\":847:862   */\n      revert\n        /* \"#utility.yul\":874:1155   */\n    tag_91:\n        /* \"#utility.yul\":957:984   */\n      tag_153\n        /* \"#utility.yul\":979:983   */\n      dup3\n        /* \"#utility.yul\":957:984   */\n      tag_90\n      jump\t// in\n    tag_153:\n        /* \"#utility.yul\":949:955   */\n      dup2\n        /* \"#utility.yul\":945:985   */\n      add\n        /* \"#utility.yul\":1087:1093   */\n      dup2\n        /* \"#utility.yul\":1075:1085   */\n      dup2\n        /* \"#utility.yul\":1072:1094   */\n      lt\n        /* \"#utility.yul\":1051:1069   */\n      0xffffffffffffffff\n        /* \"#utility.yul\":1039:1049   */\n      dup3\n        /* \"#utility.yul\":1036:1070   */\n      gt\n        /* \"#utility.yul\":1033:1095   */\n      or\n        /* \"#utility.yul\":1030:1118   */\n      iszero\n      tag_154\n      jumpi\n        /* \"#utility.yul\":1098:1116   */\n      tag_155\n      tag_69\n      jump\t// in\n    tag_155:\n        /* \"#utility.yul\":1030:1118   */\n    tag_154:\n        /* \"#utility.yul\":1138:1148   */\n      dup1\n        /* \"#utility.yul\":1134:1136   */\n      0x40\n        /* \"#utility.yul\":1127:1149   */\n      mstore\n        /* \"#utility.yul\":917:1155   */\n      pop\n        /* \"#utility.yul\":874:1155   */\n      pop\n      pop\n      jump\t// out\n        /* \"#utility.yul\":1161:1290   */\n    tag_92:\n        /* \"#utility.yul\":1195:1201   */\n      0x00\n        /* \"#utility.yul\":1222:1242   */\n      tag_157\n      tag_85\n      jump\t// in\n    tag_157:\n        /* \"#utility.yul\":1212:1242   */\n      swap1\n      pop\n        /* \"#utility.yul\":1251:1284   */\n      tag_158\n        /* \"#utility.yul\":1279:1283   */\n      dup3\n        /* \"#utility.yul\":1271:1277   */\n      dup3\n        /* \"#utility.yul\":1251:1284   */\n      tag_91\n      jump\t// in\n    tag_158:\n        /* \"#utility.yul\":1161:1290   */\n      swap2\n      swap1\n      pop\n      jump\t// out\n        /* \"#utility.yul\":1296:1604   */\n    tag_93:\n        /* \"#utility.yul\":1358:1362   */\n      0x00\n        /* \"#utility.yul\":1448:1466   */\n      0xffffffffffffffff\n        /* \"#utility.yul\":1440:1446   */\n      dup3\n        /* \"#utility.yul\":1437:1467   */\n      gt\n        /* \"#utility.yul\":1434:1490   */\n      iszero\n      tag_160\n      jumpi\n        /* \"#utility.yul\":1470:1488   */\n      tag_161\n      tag_69\n      jump\t// in\n    tag_161:\n        /* \"#utility.yul\":1434:1490   */\n    tag_160:\n        /* \"#utility.yul\":1508:1537   */\n      tag_162\n        /* \"#utility.yul\":1530:1536   */\n      dup3\n        /* \"#utility.yul\":1508:1537   */\n      tag_90\n      jump\t// in\n    tag_162:\n        /* \"#utility.yul\":1500:1537   */\n      swap1\n      pop\n        /* \"#utility.yul\":1592:1596   */\n      0x20\n        /* \"#utility.yul\":1586:1590   */\n      dup2\n        /* \"#utility.yul\":1582:1597   */\n      add\n        /* \"#utility.yul\":1574:1597   */\n      swap1\n      pop\n        /* \"#utility.yul\":1296:1604   */\n      swap2\n      swap1\n      pop\n      jump\t// out\n        /* \"#utility.yul\":1610:1756   */\n    tag_94:\n        /* \"#utility.yul\":1707:1713   */\n      dup3\n        /* \"#utility.yul\":1702:1705   */\n      dup2\n        /* \"#utility.yul\":1697:1700   */\n      dup4\n        /* \"#utility.yul\":1684:1714   */\n      calldatacopy\n        /* \"#utility.yul\":1748:1749   */\n      0x00\n        /* \"#utility.yul\":1739:1745   */\n      dup4\n        /* \"#utility.yul\":1734:1737   */\n      dup4\n        /* \"#utility.yul\":1730:1746   */\n      add\n        /* \"#utility.yul\":1723:1750   */\n      mstore\n        /* \"#utility.yul\":1610:1756   */\n      pop\n      pop\n      pop\n      jump\t// out\n        /* \"#utility.yul\":1762:2187   */\n    tag_95:\n        /* \"#utility.yul\":1840:1845   */\n      0x00\n        /* \"#utility.yul\":1865:1931   */\n      tag_165\n        /* \"#utility.yul\":1881:1930   */\n      tag_166\n        /* \"#utility.yul\":1923:1929   */\n      dup5\n        /* \"#utility.yul\":1881:1930   */\n      tag_93\n      jump\t// in\n    tag_166:\n        /* \"#utility.yul\":1865:1931   */\n      tag_92\n      jump\t// in\n    tag_165:\n        /* \"#utility.yul\":1856:1931   */\n      swap1\n      pop\n        /* \"#utility.yul\":1954:1960   */\n      dup3\n        /* \"#utility.yul\":1947:1952   */\n      dup2\n        /* \"#utility.yul\":1940:1961   */\n      mstore\n        /* \"#utility.yul\":1992:1996   */\n      0x20\n        /* \"#utility.yul\":1985:1990   */\n      dup2\n        /* \"#utility.yul\":1981:1997   */\n      add\n        /* \"#utility.yul\":2030:2033   */\n      dup5\n        /* \"#utility.yul\":2021:2027   */\n      dup5\n        /* \"#utility.yul\":2016:2019   */\n      dup5\n        /* \"#utility.yul\":2012:2028   */\n      add\n        /* \"#utility.yul\":2009:2034   */\n      gt\n        /* \"#utility.yul\":2006:2118   */\n      iszero\n      tag_167\n      jumpi\n        /* \"#utility.yul\":2037:2116   */\n      tag_168\n      tag_89\n      jump\t// in\n    tag_168:\n        /* \"#utility.yul\":2006:2118   */\n    tag_167:\n        /* \"#utility.yul\":2127:2181   */\n      tag_169\n        /* \"#utility.yul\":2174:2180   */\n      dup5\n        /* \"#utility.yul\":2169:2172   */\n      dup3\n        /* \"#utility.yul\":2164:2167   */\n      dup6\n        /* \"#utility.yul\":2127:2181   */\n      tag_94\n      jump\t// in\n    tag_169:\n        /* \"#utility.yul\":1846:2187   */\n      pop\n        /* \"#utility.yul\":1762:2187   */\n      swap4\n      swap3\n      pop\n      pop\n      pop\n      jump\t// out\n        /* \"#utility.yul\":2207:2547   */\n    tag_96:\n        /* \"#utility.yul\":2263:2268   */\n      0x00\n        /* \"#utility.yul\":2312:2315   */\n      dup3\n        /* \"#utility.yul\":2305:2309   */\n      0x1f\n        /* \"#utility.yul\":2297:2303   */\n      dup4\n        /* \"#utility.yul\":2293:2310   */\n      add\n        /* \"#utility.yul\":2289:2316   */\n      slt\n        /* \"#utility.yul\":2279:2401   */\n      tag_171\n      jumpi\n        /* \"#utility.yul\":2320:2399   */\n      tag_172\n      tag_88\n      jump\t// in\n    tag_172:\n        /* \"#utility.yul\":2279:2401   */\n    tag_171:\n        /* \"#utility.yul\":2437:2443   */\n      dup2\n        /* \"#utility.yul\":2424:2444   */\n      calldataload\n        /* \"#utility.yul\":2462:2541   */\n      tag_173\n        /* \"#utility.yul\":2537:2540   */\n      dup5\n        /* \"#utility.yul\":2529:2535   */\n      dup3\n        /* \"#utility.yul\":2522:2526   */\n      0x20\n        /* \"#utility.yul\":2514:2520   */\n      dup7\n        /* \"#utility.yul\":2510:2527   */\n      add\n        /* \"#utility.yul\":2462:2541   */\n      tag_95\n      jump\t// in\n    tag_173:\n        /* \"#utility.yul\":2453:2541   */\n      swap2\n      pop\n        /* \"#utility.yul\":2269:2547   */\n      pop\n        /* \"#utility.yul\":2207:2547   */\n      swap3\n      swap2\n      pop\n      pop\n      jump\t// out\n        /* \"#utility.yul\":2553:2630   */\n    tag_97:\n        /* \"#utility.yul\":2590:2597   */\n      0x00\n        /* \"#utility.yul\":2619:2624   */\n      dup2\n        /* \"#utility.yul\":2608:2624   */\n      swap1\n      pop\n        /* \"#utility.yul\":2553:2630   */\n      swap2\n      swap1\n      pop\n      jump\t// out\n        /* \"#utility.yul\":2636:2758   */\n    tag_98:\n        /* \"#utility.yul\":2709:2733   */\n      tag_176\n        /* \"#utility.yul\":2727:2732   */\n      dup2\n        /* \"#utility.yul\":2709:2733   */\n      tag_97\n      jump\t// in\n    tag_176:\n        /* \"#utility.yul\":2702:2707   */\n      dup2\n        /* \"#utility.yul\":2699:2734   */\n      eq\n        /* \"#utility.yul\":2689:2752   */\n      tag_177\n      jumpi\n        /* \"#utility.yul\":2748:2749   */\n      0x00\n        /* \"#utility.yul\":2745:2746   */\n      dup1\n        /* \"#utility.yul\":2738:2750   */\n      revert\n        /* \"#utility.yul\":2689:2752   */\n    tag_177:\n        /* \"#utility.yul\":2636:2758   */\n      pop\n      jump\t// out\n        /* \"#utility.yul\":2764:2903   */\n    tag_99:\n        /* \"#utility.yul\":2810:2815   */\n      0x00\n        /* \"#utility.yul\":2848:2854   */\n      dup2\n        /* \"#utility.yul\":2835:2855   */\n      calldataload\n        /* \"#utility.yul\":2826:2855   */\n      swap1\n      pop\n        /* \"#utility.yul\":2864:2897   */\n      tag_179\n        /* \"#utility.yul\":2891:2896   */\n      dup2\n        /* \"#utility.yul\":2864:2897   */\n      tag_98\n      jump\t// in\n    tag_179:\n        /* \"#utility.yul\":2764:2903   */\n      swap3\n      swap2\n      pop\n      pop\n      jump\t// out\n        /* \"#utility.yul\":2909:3563   */\n    tag_10:\n        /* \"#utility.yul\":2987:2993   */\n      0x00\n        /* \"#utility.yul\":2995:3001   */\n      dup1\n        /* \"#utility.yul\":3044:3046   */\n      0x40\n        /* \"#utility.yul\":3032:3041   */\n      dup4\n        /* \"#utility.yul\":3023:3030   */\n      dup6\n        /* \"#utility.yul\":3019:3042   */\n      sub\n        /* \"#utility.yul\":3015:3047   */\n      slt\n        /* \"#utility.yul\":3012:3131   */\n      iszero\n      tag_181\n      jumpi\n        /* \"#utility.yul\":3050:3129   */\n      tag_182\n      tag_86\n      jump\t// in\n    tag_182:\n        /* \"#utility.yul\":3012:3131   */\n    tag_181:\n        /* \"#utility.yul\":3198:3199   */\n      0x00\n        /* \"#utility.yul\":3187:3196   */\n      dup4\n        /* \"#utility.yul\":3183:3200   */\n      add\n        /* \"#utility.yul\":3170:3201   */\n      calldataload\n        /* \"#utility.yul\":3228:3246   */\n      0xffffffffffffffff\n        /* \"#utility.yul\":3220:3226   */\n      dup2\n        /* \"#utility.yul\":3217:3247   */\n      gt\n        /* \"#utility.yul\":3214:3331   */\n      iszero\n      tag_183\n      jumpi\n        /* \"#utility.yul\":3250:3329   */\n      tag_184\n      tag_87\n      jump\t// in\n    tag_184:\n        /* \"#utility.yul\":3214:3331   */\n    tag_183:\n        /* \"#utility.yul\":3355:3418   */\n      tag_185\n        /* \"#utility.yul\":3410:3417   */\n      dup6\n        /* \"#utility.yul\":3401:3407   */\n      dup3\n        /* \"#utility.yul\":3390:3399   */\n      dup7\n        /* \"#utility.yul\":3386:3408   */\n      add\n        /* \"#utility.yul\":3355:3418   */\n      tag_96\n      jump\t// in\n    tag_185:\n        /* \"#utility.yul\":3345:3418   */\n      swap3\n      pop\n        /* \"#utility.yul\":3141:3428   */\n      pop\n        /* \"#utility.yul\":3467:3469   */\n      0x20\n        /* \"#utility.yul\":3493:3546   */\n      tag_186\n        /* \"#utility.yul\":3538:3545   */\n      dup6\n        /* \"#utility.yul\":3529:3535   */\n      dup3\n        /* \"#utility.yul\":3518:3527   */\n      dup7\n        /* \"#utility.yul\":3514:3536   */\n      add\n        /* \"#utility.yul\":3493:3546   */\n      tag_99\n      jump\t// in\n    tag_186:\n        /* \"#utility.yul\":3483:3546   */\n      swap2\n      pop\n        /* \"#utility.yul\":3438:3556   */\n      pop\n        /* \"#utility.yul\":2909:3563   */\n      swap3\n      pop\n      swap3\n      swap1\n      pop\n      jump\t// out\n        /* \"#utility.yul\":3569:3687   */\n    tag_100:\n        /* \"#utility.yul\":3656:3680   */\n      tag_188\n        /* \"#utility.yul\":3674:3679   */\n      dup2\n        /* \"#utility.yul\":3656:3680   */\n      tag_97\n      jump\t// in\n    tag_188:\n        /* \"#utility.yul\":3651:3654   */\n      dup3\n        /* \"#utility.yul\":3644:3681   */\n      mstore\n        /* \"#utility.yul\":3569:3687   */\n      pop\n      pop\n      jump\t// out\n        /* \"#utility.yul\":3693:3915   */\n    tag_16:\n        /* \"#utility.yul\":3786:3790   */\n      0x00\n        /* \"#utility.yul\":3824:3826   */\n      0x20\n        /* \"#utility.yul\":3813:3822   */\n      dup3\n        /* \"#utility.yul\":3809:3827   */\n      add\n        /* \"#utility.yul\":3801:3827   */\n      swap1\n      pop\n        /* \"#utility.yul\":3837:3908   */\n      tag_190\n        /* \"#utility.yul\":3905:3906   */\n      0x00\n        /* \"#utility.yul\":3894:3903   */\n      dup4\n        /* \"#utility.yul\":3890:3907   */\n      add\n        /* \"#utility.yul\":3881:3887   */\n      dup5\n        /* \"#utility.yul\":3837:3908   */\n      tag_100\n      jump\t// in\n    tag_190:\n        /* \"#utility.yul\":3693:3915   */\n      swap3\n      swap2\n      pop\n      pop\n      jump\t// out\n        /* \"#utility.yul\":3921:4250   */\n    tag_20:\n        /* \"#utility.yul\":3980:3986   */\n      0x00\n        /* \"#utility.yul\":4029:4031   */\n      0x20\n        /* \"#utility.yul\":4017:4026   */\n      dup3\n        /* \"#utility.yul\":4008:4015   */\n      dup5\n        /* \"#utility.yul\":4004:4027   */\n      sub\n        /* \"#utility.yul\":4000:4032   */\n      slt\n        /* \"#utility.yul\":3997:4116   */\n      iszero\n      tag_192\n      jumpi\n        /* \"#utility.yul\":4035:4114   */\n      tag_193\n      tag_86\n      jump\t// in\n    tag_193:\n        /* \"#utility.yul\":3997:4116   */\n    tag_192:\n        /* \"#utility.yul\":4155:4156   */\n      0x00\n        /* \"#utility.yul\":4180:4233   */\n      tag_194\n        /* \"#utility.yul\":4225:4232   */\n      dup5\n        /* \"#utility.yul\":4216:4222   */\n      dup3\n        /* \"#utility.yul\":4205:4214   */\n      dup6\n        /* \"#utility.yul\":4201:4223   */\n      add\n        /* \"#utility.yul\":4180:4233   */\n      tag_99\n      jump\t// in\n    tag_194:\n        /* \"#utility.yul\":4170:4233   */\n      swap2\n      pop\n        /* \"#utility.yul\":4126:4243   */\n      pop\n        /* \"#utility.yul\":3921:4250   */\n      swap3\n      swap2\n      pop\n      pop\n      jump\t// out\n        /* \"#utility.yul\":4256:4355   */\n    tag_101:\n        /* \"#utility.yul\":4308:4314   */\n      0x00\n        /* \"#utility.yul\":4342:4347   */\n      dup2\n        /* \"#utility.yul\":4336:4348   */\n      mload\n        /* \"#utility.yul\":4326:4348   */\n      swap1\n      pop\n        /* \"#utility.yul\":4256:4355   */\n      swap2\n      swap1\n      pop\n      jump\t// out\n        /* \"#utility.yul\":4361:4530   */\n    tag_102:\n        /* \"#utility.yul\":4445:4456   */\n      0x00\n        /* \"#utility.yul\":4479:4485   */\n      dup3\n        /* \"#utility.yul\":4474:4477   */\n      dup3\n        /* \"#utility.yul\":4467:4486   */\n      mstore\n        /* \"#utility.yul\":4519:4523   */\n      0x20\n        /* \"#utility.yul\":4514:4517   */\n      dup3\n        /* \"#utility.yul\":4510:4524   */\n      add\n        /* \"#utility.yul\":4495:4524   */\n      swap1\n      pop\n        /* \"#utility.yul\":4361:4530   */\n      swap3\n      swap2\n      pop\n      pop\n      jump\t// out\n        /* \"#utility.yul\":4536:4782   */\n    tag_103:\n        /* \"#utility.yul\":4617:4618   */\n      0x00\n        /* \"#utility.yul\":4627:4740   */\n    tag_198:\n        /* \"#utility.yul\":4641:4647   */\n      dup4\n        /* \"#utility.yul\":4638:4639   */\n      dup2\n        /* \"#utility.yul\":4635:4648   */\n      lt\n        /* \"#utility.yul\":4627:4740   */\n      iszero\n      tag_200\n      jumpi\n        /* \"#utility.yul\":4726:4727   */\n      dup1\n        /* \"#utility.yul\":4721:4724   */\n      dup3\n        /* \"#utility.yul\":4717:4728   */\n      add\n        /* \"#utility.yul\":4711:4729   */\n      mload\n        /* \"#utility.yul\":4707:4708   */\n      dup2\n        /* \"#utility.yul\":4702:4705   */\n      dup5\n        /* \"#utility.yul\":4698:4709   */\n      add\n        /* \"#utility.yul\":4691:4730   */\n      mstore\n        /* \"#utility.yul\":4663:4665   */\n      0x20\n        /* \"#utility.yul\":4660:4661   */\n      dup2\n        /* \"#utility.yul\":4656:4666   */\n      add\n        /* \"#utility.yul\":4651:4666   */\n      swap1\n      pop\n        /* \"#utility.yul\":4627:4740   */\n      jump(tag_198)\n    tag_200:\n        /* \"#utility.yul\":4774:4775   */\n      0x00\n        /* \"#utility.yul\":4765:4771   */\n      dup5\n        /* \"#utility.yul\":4760:4763   */\n      dup5\n        /* \"#utility.yul\":4756:4772   */\n      add\n        /* \"#utility.yul\":4749:4776   */\n      mstore\n        /* \"#utility.yul\":4598:4782   */\n      pop\n        /* \"#utility.yul\":4536:4782   */\n      pop\n      pop\n      pop\n      jump\t// out\n        /* \"#utility.yul\":4788:5165   */\n    tag_104:\n        /* \"#utility.yul\":4876:4879   */\n      0x00\n        /* \"#utility.yul\":4904:4943   */\n      tag_202\n        /* \"#utility.yul\":4937:4942   */\n      dup3\n        /* \"#utility.yul\":4904:4943   */\n      tag_101\n      jump\t// in\n    tag_202:\n        /* \"#utility.yul\":4959:5030   */\n      tag_203\n        /* \"#utility.yul\":5023:5029   */\n      dup2\n        /* \"#utility.yul\":5018:5021   */\n      dup6\n        /* \"#utility.yul\":4959:5030   */\n      tag_102\n      jump\t// in\n    tag_203:\n        /* \"#utility.yul\":4952:5030   */\n      swap4\n      pop\n        /* \"#utility.yul\":5039:5104   */\n      tag_204\n        /* \"#utility.yul\":5097:5103   */\n      dup2\n        /* \"#utility.yul\":5092:5095   */\n      dup6\n        /* \"#utility.yul\":5085:5089   */\n      0x20\n        /* \"#utility.yul\":5078:5083   */\n      dup7\n        /* \"#utility.yul\":5074:5090   */\n      add\n        /* \"#utility.yul\":5039:5104   */\n      tag_103\n      jump\t// in\n    tag_204:\n        /* \"#utility.yul\":5129:5158   */\n      tag_205\n        /* \"#utility.yul\":5151:5157   */\n      dup2\n        /* \"#utility.yul\":5129:5158   */\n      tag_90\n      jump\t// in\n    tag_205:\n        /* \"#utility.yul\":5124:5127   */\n      dup5\n        /* \"#utility.yul\":5120:5159   */\n      add\n        /* \"#utility.yul\":5113:5159   */\n      swap2\n      pop\n        /* \"#utility.yul\":4880:5165   */\n      pop\n        /* \"#utility.yul\":4788:5165   */\n      swap3\n      swap2\n      pop\n      pop\n      jump\t// out\n        /* \"#utility.yul\":5171:5594   */\n    tag_23:\n        /* \"#utility.yul\":5312:5316   */\n      0x00\n        /* \"#utility.yul\":5350:5352   */\n      0x40\n        /* \"#utility.yul\":5339:5348   */\n      dup3\n        /* \"#utility.yul\":5335:5353   */\n      add\n        /* \"#utility.yul\":5327:5353   */\n      swap1\n      pop\n        /* \"#utility.yul\":5399:5408   */\n      dup2\n        /* \"#utility.yul\":5393:5397   */\n      dup2\n        /* \"#utility.yul\":5389:5409   */\n      sub\n        /* \"#utility.yul\":5385:5386   */\n      0x00\n        /* \"#utility.yul\":5374:5383   */\n      dup4\n        /* \"#utility.yul\":5370:5387   */\n      add\n        /* \"#utility.yul\":5363:5410   */\n      mstore\n        /* \"#utility.yul\":5427:5505   */\n      tag_207\n        /* \"#utility.yul\":5500:5504   */\n      dup2\n        /* \"#utility.yul\":5491:5497   */\n      dup6\n        /* \"#utility.yul\":5427:5505   */\n      tag_104\n      jump\t// in\n    tag_207:\n        /* \"#utility.yul\":5419:5505   */\n      swap1\n      pop\n        /* \"#utility.yul\":5515:5587   */\n      tag_208\n        /* \"#utility.yul\":5583:5585   */\n      0x20\n        /* \"#utility.yul\":5572:5581   */\n      dup4\n        /* \"#utility.yul\":5568:5586   */\n      add\n        /* \"#utility.yul\":5559:5565   */\n      dup5\n        /* \"#utility.yul\":5515:5587   */\n      tag_100\n      jump\t// in\n    tag_208:\n        /* \"#utility.yul\":5171:5594   */\n      swap4\n      swap3\n      pop\n      pop\n      pop\n      jump\t// out\n        /* \"#utility.yul\":5600:5726   */\n    tag_105:\n        /* \"#utility.yul\":5637:5644   */\n      0x00\n        /* \"#utility.yul\":5677:5719   */\n      0xffffffffffffffffffffffffffffffffffffffff\n        /* \"#utility.yul\":5670:5675   */\n      dup3\n        /* \"#utility.yul\":5666:5720   */\n      and\n        /* \"#utility.yul\":5655:5720   */\n      swap1\n      pop\n        /* \"#utility.yul\":5600:5726   */\n      swap2\n      swap1\n      pop\n      jump\t// out\n        /* \"#utility.yul\":5732:5828   */\n    tag_106:\n        /* \"#utility.yul\":5769:5776   */\n      0x00\n        /* \"#utility.yul\":5798:5822   */\n      tag_211\n        /* \"#utility.yul\":5816:5821   */\n      dup3\n        /* \"#utility.yul\":5798:5822   */\n      tag_105\n      jump\t// in\n    tag_211:\n        /* \"#utility.yul\":5787:5822   */\n      swap1\n      pop\n        /* \"#utility.yul\":5732:5828   */\n      swap2\n      swap1\n      pop\n      jump\t// out\n        /* \"#utility.yul\":5834:5956   */\n    tag_107:\n        /* \"#utility.yul\":5907:5931   */\n      tag_213\n        /* \"#utility.yul\":5925:5930   */\n      dup2\n        /* \"#utility.yul\":5907:5931   */\n      tag_106\n      jump\t// in\n    tag_213:\n        /* \"#utility.yul\":5900:5905   */\n      dup2\n        /* \"#utility.yul\":5897:5932   */\n      eq\n        /* \"#utility.yul\":5887:5950   */\n      tag_214\n      jumpi\n        /* \"#utility.yul\":5946:5947   */\n      0x00\n        /* \"#utility.yul\":5943:5944   */\n      dup1\n        /* \"#utility.yul\":5936:5948   */\n      revert\n        /* \"#utility.yul\":5887:5950   */\n    tag_214:\n        /* \"#utility.yul\":5834:5956   */\n      pop\n      jump\t// out\n        /* \"#utility.yul\":5962:6101   */\n    tag_108:\n        /* \"#utility.yul\":6008:6013   */\n      0x00\n        /* \"#utility.yul\":6046:6052   */\n      dup2\n        /* \"#utility.yul\":6033:6053   */\n      calldataload\n        /* \"#utility.yul\":6024:6053   */\n      swap1\n      pop\n        /* \"#utility.yul\":6062:6095   */\n      tag_216\n        /* \"#utility.yul\":6089:6094   */\n      dup2\n        /* \"#utility.yul\":6062:6095   */\n      tag_107\n      jump\t// in\n    tag_216:\n        /* \"#utility.yul\":5962:6101   */\n      swap3\n      swap2\n      pop\n      pop\n      jump\t// out\n        /* \"#utility.yul\":6107:6581   */\n    tag_27:\n        /* \"#utility.yul\":6175:6181   */\n      0x00\n        /* \"#utility.yul\":6183:6189   */\n      dup1\n        /* \"#utility.yul\":6232:6234   */\n      0x40\n        /* \"#utility.yul\":6220:6229   */\n      dup4\n        /* \"#utility.yul\":6211:6218   */\n      dup6\n        /* \"#utility.yul\":6207:6230   */\n      sub\n        /* \"#utility.yul\":6203:6235   */\n      slt\n        /* \"#utility.yul\":6200:6319   */\n      iszero\n      tag_218\n      jumpi\n        /* \"#utility.yul\":6238:6317   */\n      tag_219\n      tag_86\n      jump\t// in\n    tag_219:\n        /* \"#utility.yul\":6200:6319   */\n    tag_218:\n        /* \"#utility.yul\":6358:6359   */\n      0x00\n        /* \"#utility.yul\":6383:6436   */\n      tag_220\n        /* \"#utility.yul\":6428:6435   */\n      dup6\n        /* \"#utility.yul\":6419:6425   */\n      dup3\n        /* \"#utility.yul\":6408:6417   */\n      dup7\n        /* \"#utility.yul\":6404:6426   */\n      add\n        /* \"#utility.yul\":6383:6436   */\n      tag_99\n      jump\t// in\n    tag_220:\n        /* \"#utility.yul\":6373:6436   */\n      swap3\n      pop\n        /* \"#utility.yul\":6329:6446   */\n      pop\n        /* \"#utility.yul\":6485:6487   */\n      0x20\n        /* \"#utility.yul\":6511:6564   */\n      tag_221\n        /* \"#utility.yul\":6556:6563   */\n      dup6\n        /* \"#utility.yul\":6547:6553   */\n      dup3\n        /* \"#utility.yul\":6536:6545   */\n      dup7\n        /* \"#utility.yul\":6532:6554   */\n      add\n        /* \"#utility.yul\":6511:6564   */\n      tag_108\n      jump\t// in\n    tag_221:\n        /* \"#utility.yul\":6501:6564   */\n      swap2\n      pop\n        /* \"#utility.yul\":6456:6574   */\n      pop\n        /* \"#utility.yul\":6107:6581   */\n      swap3\n      pop\n      swap3\n      swap1\n      pop\n      jump\t// out\n        /* \"#utility.yul\":6587:6722   */\n    tag_109:\n        /* \"#utility.yul\":6675:6681   */\n      0x00\n        /* \"#utility.yul\":6709:6714   */\n      dup2\n        /* \"#utility.yul\":6703:6715   */\n      mload\n        /* \"#utility.yul\":6693:6715   */\n      swap1\n      pop\n        /* \"#utility.yul\":6587:6722   */\n      swap2\n      swap1\n      pop\n      jump\t// out\n        /* \"#utility.yul\":6728:6933   */\n    tag_110:\n        /* \"#utility.yul\":6848:6859   */\n      0x00\n        /* \"#utility.yul\":6882:6888   */\n      dup3\n        /* \"#utility.yul\":6877:6880   */\n      dup3\n        /* \"#utility.yul\":6870:6889   */\n      mstore\n        /* \"#utility.yul\":6922:6926   */\n      0x20\n        /* \"#utility.yul\":6917:6920   */\n      dup3\n        /* \"#utility.yul\":6913:6927   */\n      add\n        /* \"#utility.yul\":6898:6927   */\n      swap1\n      pop\n        /* \"#utility.yul\":6728:6933   */\n      swap3\n      swap2\n      pop\n      pop\n      jump\t// out\n        /* \"#utility.yul\":6939:7092   */\n    tag_111:\n        /* \"#utility.yul\":7027:7031   */\n      0x00\n        /* \"#utility.yul\":7050:7053   */\n      dup2\n        /* \"#utility.yul\":7042:7053   */\n      swap1\n      pop\n        /* \"#utility.yul\":7080:7084   */\n      0x20\n        /* \"#utility.yul\":7075:7078   */\n      dup3\n        /* \"#utility.yul\":7071:7085   */\n      add\n        /* \"#utility.yul\":7063:7085   */\n      swap1\n      pop\n        /* \"#utility.yul\":6939:7092   */\n      swap2\n      swap1\n      pop\n      jump\t// out\n        /* \"#utility.yul\":7098:7257   */\n    tag_112:\n        /* \"#utility.yul\":7172:7183   */\n      0x00\n        /* \"#utility.yul\":7206:7212   */\n      dup3\n        /* \"#utility.yul\":7201:7204   */\n      dup3\n        /* \"#utility.yul\":7194:7213   */\n      mstore\n        /* \"#utility.yul\":7246:7250   */\n      0x20\n        /* \"#utility.yul\":7241:7244   */\n      dup3\n        /* \"#utility.yul\":7237:7251   */\n      add\n        /* \"#utility.yul\":7222:7251   */\n      swap1\n      pop\n        /* \"#utility.yul\":7098:7257   */\n      swap3\n      swap2\n      pop\n      pop\n      jump\t// out\n        /* \"#utility.yul\":7263:7620   */\n    tag_113:\n        /* \"#utility.yul\":7341:7344   */\n      0x00\n        /* \"#utility.yul\":7369:7408   */\n      tag_227\n        /* \"#utility.yul\":7402:7407   */\n      dup3\n        /* \"#utility.yul\":7369:7408   */\n      tag_101\n      jump\t// in\n    tag_227:\n        /* \"#utility.yul\":7424:7485   */\n      tag_228\n        /* \"#utility.yul\":7478:7484   */\n      dup2\n        /* \"#utility.yul\":7473:7476   */\n      dup6\n        /* \"#utility.yul\":7424:7485   */\n      tag_112\n      jump\t// in\n    tag_228:\n        /* \"#utility.yul\":7417:7485   */\n      swap4\n      pop\n        /* \"#utility.yul\":7494:7559   */\n      tag_229\n        /* \"#utility.yul\":7552:7558   */\n      dup2\n        /* \"#utility.yul\":7547:7550   */\n      dup6\n        /* \"#utility.yul\":7540:7544   */\n      0x20\n        /* \"#utility.yul\":7533:7538   */\n      dup7\n        /* \"#utility.yul\":7529:7545   */\n      add\n        /* \"#utility.yul\":7494:7559   */\n      tag_103\n      jump\t// in\n    tag_229:\n        /* \"#utility.yul\":7584:7613   */\n      tag_230\n        /* \"#utility.yul\":7606:7612   */\n      dup2\n        /* \"#utility.yul\":7584:7613   */\n      tag_90\n      jump\t// in\n    tag_230:\n        /* \"#utility.yul\":7579:7582   */\n      dup5\n        /* \"#utility.yul\":7575:7614   */\n      add\n        /* \"#utility.yul\":7568:7614   */\n      swap2\n      pop\n        /* \"#utility.yul\":7345:7620   */\n      pop\n        /* \"#utility.yul\":7263:7620   */\n      swap3\n      swap2\n      pop\n      pop\n      jump\t// out\n        /* \"#utility.yul\":7626:7734   */\n    tag_114:\n        /* \"#utility.yul\":7703:7727   */\n      tag_232\n        /* \"#utility.yul\":7721:7726   */\n      dup2\n        /* \"#utility.yul\":7703:7727   */\n      tag_97\n      jump\t// in\n    tag_232:\n        /* \"#utility.yul\":7698:7701   */\n      dup3\n        /* \"#utility.yul\":7691:7728   */\n      mstore\n        /* \"#utility.yul\":7626:7734   */\n      pop\n      pop\n      jump\t// out\n        /* \"#utility.yul\":7798:8388   */\n    tag_115:\n        /* \"#utility.yul\":7899:7902   */\n      0x00\n        /* \"#utility.yul\":7935:7939   */\n      0x40\n        /* \"#utility.yul\":7930:7933   */\n      dup4\n        /* \"#utility.yul\":7926:7940   */\n      add\n        /* \"#utility.yul\":8022:8026   */\n      0x00\n        /* \"#utility.yul\":8015:8020   */\n      dup4\n        /* \"#utility.yul\":8011:8027   */\n      add\n        /* \"#utility.yul\":8005:8028   */\n      mload\n        /* \"#utility.yul\":8075:8078   */\n      dup5\n        /* \"#utility.yul\":8069:8073   */\n      dup3\n        /* \"#utility.yul\":8065:8079   */\n      sub\n        /* \"#utility.yul\":8058:8062   */\n      0x00\n        /* \"#utility.yul\":8053:8056   */\n      dup7\n        /* \"#utility.yul\":8049:8063   */\n      add\n        /* \"#utility.yul\":8042:8080   */\n      mstore\n        /* \"#utility.yul\":8101:8174   */\n      tag_234\n        /* \"#utility.yul\":8169:8173   */\n      dup3\n        /* \"#utility.yul\":8155:8167   */\n      dup3\n        /* \"#utility.yul\":8101:8174   */\n      tag_113\n      jump\t// in\n    tag_234:\n        /* \"#utility.yul\":8093:8174   */\n      swap2\n      pop\n        /* \"#utility.yul\":7950:8185   */\n      pop\n        /* \"#utility.yul\":8269:8273   */\n      0x20\n        /* \"#utility.yul\":8262:8267   */\n      dup4\n        /* \"#utility.yul\":8258:8274   */\n      add\n        /* \"#utility.yul\":8252:8275   */\n      mload\n        /* \"#utility.yul\":8288:8351   */\n      tag_235\n        /* \"#utility.yul\":8345:8349   */\n      0x20\n        /* \"#utility.yul\":8340:8343   */\n      dup7\n        /* \"#utility.yul\":8336:8350   */\n      add\n        /* \"#utility.yul\":8322:8334   */\n      dup3\n        /* \"#utility.yul\":8288:8351   */\n      tag_114\n      jump\t// in\n    tag_235:\n        /* \"#utility.yul\":8195:8361   */\n      pop\n        /* \"#utility.yul\":8378:8382   */\n      dup1\n        /* \"#utility.yul\":8371:8382   */\n      swap2\n      pop\n        /* \"#utility.yul\":7904:8388   */\n      pop\n        /* \"#utility.yul\":7798:8388   */\n      swap3\n      swap2\n      pop\n      pop\n      jump\t// out\n        /* \"#utility.yul\":8394:8634   */\n    tag_116:\n        /* \"#utility.yul\":8505:8515   */\n      0x00\n        /* \"#utility.yul\":8540:8628   */\n      tag_237\n        /* \"#utility.yul\":8624:8627   */\n      dup4\n        /* \"#utility.yul\":8616:8622   */\n      dup4\n        /* \"#utility.yul\":8540:8628   */\n      tag_115\n      jump\t// in\n    tag_237:\n        /* \"#utility.yul\":8526:8628   */\n      swap1\n      pop\n        /* \"#utility.yul\":8394:8634   */\n      swap3\n      swap2\n      pop\n      pop\n      jump\t// out\n        /* \"#utility.yul\":8640:8774   */\n    tag_117:\n        /* \"#utility.yul\":8731:8735   */\n      0x00\n        /* \"#utility.yul\":8763:8767   */\n      0x20\n        /* \"#utility.yul\":8758:8761   */\n      dup3\n        /* \"#utility.yul\":8754:8768   */\n      add\n        /* \"#utility.yul\":8746:8768   */\n      swap1\n      pop\n        /* \"#utility.yul\":8640:8774   */\n      swap2\n      swap1\n      pop\n      jump\t// out\n        /* \"#utility.yul\":8842:9921   */\n    tag_118:\n        /* \"#utility.yul\":9003:9006   */\n      0x00\n        /* \"#utility.yul\":9032:9107   */\n      tag_240\n        /* \"#utility.yul\":9101:9106   */\n      dup3\n        /* \"#utility.yul\":9032:9107   */\n      tag_109\n      jump\t// in\n    tag_240:\n        /* \"#utility.yul\":9123:9230   */\n      tag_241\n        /* \"#utility.yul\":9223:9229   */\n      dup2\n        /* \"#utility.yul\":9218:9221   */\n      dup6\n        /* \"#utility.yul\":9123:9230   */\n      tag_110\n      jump\t// in\n    tag_241:\n        /* \"#utility.yul\":9116:9230   */\n      swap4\n      pop\n        /* \"#utility.yul\":9256:9259   */\n      dup4\n        /* \"#utility.yul\":9301:9305   */\n      0x20\n        /* \"#utility.yul\":9293:9299   */\n      dup3\n        /* \"#utility.yul\":9289:9306   */\n      mul\n        /* \"#utility.yul\":9284:9287   */\n      dup6\n        /* \"#utility.yul\":9280:9307   */\n      add\n        /* \"#utility.yul\":9331:9408   */\n      tag_242\n        /* \"#utility.yul\":9402:9407   */\n      dup6\n        /* \"#utility.yul\":9331:9408   */\n      tag_111\n      jump\t// in\n    tag_242:\n        /* \"#utility.yul\":9431:9438   */\n      dup1\n        /* \"#utility.yul\":9462:9463   */\n      0x00\n        /* \"#utility.yul\":9447:9876   */\n    tag_243:\n        /* \"#utility.yul\":9472:9478   */\n      dup6\n        /* \"#utility.yul\":9469:9470   */\n      dup2\n        /* \"#utility.yul\":9466:9479   */\n      lt\n        /* \"#utility.yul\":9447:9876   */\n      iszero\n      tag_245\n      jumpi\n        /* \"#utility.yul\":9543:9552   */\n      dup5\n        /* \"#utility.yul\":9537:9541   */\n      dup5\n        /* \"#utility.yul\":9533:9553   */\n      sub\n        /* \"#utility.yul\":9528:9531   */\n      dup10\n        /* \"#utility.yul\":9521:9554   */\n      mstore\n        /* \"#utility.yul\":9594:9600   */\n      dup2\n        /* \"#utility.yul\":9588:9601   */\n      mload\n        /* \"#utility.yul\":9622:9728   */\n      tag_246\n        /* \"#utility.yul\":9723:9727   */\n      dup6\n        /* \"#utility.yul\":9708:9721   */\n      dup3\n        /* \"#utility.yul\":9622:9728   */\n      tag_116\n      jump\t// in\n    tag_246:\n        /* \"#utility.yul\":9614:9728   */\n      swap5\n      pop\n        /* \"#utility.yul\":9751:9832   */\n      tag_247\n        /* \"#utility.yul\":9825:9831   */\n      dup4\n        /* \"#utility.yul\":9751:9832   */\n      tag_117\n      jump\t// in\n    tag_247:\n        /* \"#utility.yul\":9741:9832   */\n      swap3\n      pop\n        /* \"#utility.yul\":9861:9865   */\n      0x20\n        /* \"#utility.yul\":9856:9859   */\n      dup11\n        /* \"#utility.yul\":9852:9866   */\n      add\n        /* \"#utility.yul\":9845:9866   */\n      swap10\n      pop\n        /* \"#utility.yul\":9507:9876   */\n      pop\n        /* \"#utility.yul\":9494:9495   */\n      0x01\n        /* \"#utility.yul\":9491:9492   */\n      dup2\n        /* \"#utility.yul\":9487:9496   */\n      add\n        /* \"#utility.yul\":9482:9496   */\n      swap1\n      pop\n        /* \"#utility.yul\":9447:9876   */\n      jump(tag_243)\n    tag_245:\n        /* \"#utility.yul\":9451:9465   */\n      pop\n        /* \"#utility.yul\":9892:9896   */\n      dup3\n        /* \"#utility.yul\":9885:9896   */\n      swap8\n      pop\n        /* \"#utility.yul\":9912:9915   */\n      dup8\n        /* \"#utility.yul\":9905:9915   */\n      swap6\n      pop\n        /* \"#utility.yul\":9008:9921   */\n      pop\n      pop\n      pop\n      pop\n      pop\n        /* \"#utility.yul\":8842:9921   */\n      swap3\n      swap2\n      pop\n      pop\n      jump\t// out\n        /* \"#utility.yul\":9927:10384   */\n    tag_33:\n        /* \"#utility.yul\":10112:10116   */\n      0x00\n        /* \"#utility.yul\":10150:10152   */\n      0x20\n        /* \"#utility.yul\":10139:10148   */\n      dup3\n        /* \"#utility.yul\":10135:10153   */\n      add\n        /* \"#utility.yul\":10127:10153   */\n      swap1\n      pop\n        /* \"#utility.yul\":10199:10208   */\n      dup2\n        /* \"#utility.yul\":10193:10197   */\n      dup2\n        /* \"#utility.yul\":10189:10209   */\n      sub\n        /* \"#utility.yul\":10185:10186   */\n      0x00\n        /* \"#utility.yul\":10174:10183   */\n      dup4\n        /* \"#utility.yul\":10170:10187   */\n      add\n        /* \"#utility.yul\":10163:10210   */\n      mstore\n        /* \"#utility.yul\":10227:10377   */\n      tag_249\n        /* \"#utility.yul\":10372:10376   */\n      dup2\n        /* \"#utility.yul\":10363:10369   */\n      dup5\n        /* \"#utility.yul\":10227:10377   */\n      tag_118\n      jump\t// in\n    tag_249:\n        /* \"#utility.yul\":10219:10377   */\n      swap1\n      pop\n        /* \"#utility.yul\":9927:10384   */\n      swap3\n      swap2\n      pop\n      pop\n      jump\t// out\n        /* \"#utility.yul\":10390:10508   */\n    tag_119:\n        /* \"#utility.yul\":10477:10501   */\n      tag_251\n        /* \"#utility.yul\":10495:10500   */\n      dup2\n        /* \"#utility.yul\":10477:10501   */\n      tag_106\n      jump\t// in\n    tag_251:\n        /* \"#utility.yul\":10472:10475   */\n      dup3\n        /* \"#utility.yul\":10465:10502   */\n      mstore\n        /* \"#utility.yul\":10390:10508   */\n      pop\n      pop\n      jump\t// out\n        /* \"#utility.yul\":10514:10736   */\n    tag_38:\n        /* \"#utility.yul\":10607:10611   */\n      0x00\n        /* \"#utility.yul\":10645:10647   */\n      0x20\n        /* \"#utility.yul\":10634:10643   */\n      dup3\n        /* \"#utility.yul\":10630:10648   */\n      add\n        /* \"#utility.yul\":10622:10648   */\n      swap1\n      pop\n        /* \"#utility.yul\":10658:10729   */\n      tag_253\n        /* \"#utility.yul\":10726:10727   */\n      0x00\n        /* \"#utility.yul\":10715:10724   */\n      dup4\n        /* \"#utility.yul\":10711:10728   */\n      add\n        /* \"#utility.yul\":10702:10708   */\n      dup5\n        /* \"#utility.yul\":10658:10729   */\n      tag_119\n      jump\t// in\n    tag_253:\n        /* \"#utility.yul\":10514:10736   */\n      swap3\n      swap2\n      pop\n      pop\n      jump\t// out\n        /* \"#utility.yul\":10742:10922   */\n    tag_120:\n        /* \"#utility.yul\":10790:10867   */\n      0x4e487b7100000000000000000000000000000000000000000000000000000000\n        /* \"#utility.yul\":10787:10788   */\n      0x00\n        /* \"#utility.yul\":10780:10868   */\n      mstore\n        /* \"#utility.yul\":10887:10891   */\n      0x22\n        /* \"#utility.yul\":10884:10885   */\n      0x04\n        /* \"#utility.yul\":10877:10892   */\n      mstore\n        /* \"#utility.yul\":10911:10915   */\n      0x24\n        /* \"#utility.yul\":10908:10909   */\n      0x00\n        /* \"#utility.yul\":10901:10916   */\n      revert\n        /* \"#utility.yul\":10928:11248   */\n    tag_45:\n        /* \"#utility.yul\":10972:10978   */\n      0x00\n        /* \"#utility.yul\":11009:11010   */\n      0x02\n        /* \"#utility.yul\":11003:11007   */\n      dup3\n        /* \"#utility.yul\":10999:11011   */\n      div\n        /* \"#utility.yul\":10989:11011   */\n      swap1\n      pop\n        /* \"#utility.yul\":11056:11057   */\n      0x01\n        /* \"#utility.yul\":11050:11054   */\n      dup3\n        /* \"#utility.yul\":11046:11058   */\n      and\n        /* \"#utility.yul\":11077:11095   */\n      dup1\n        /* \"#utility.yul\":11067:11148   */\n      tag_256\n      jumpi\n        /* \"#utility.yul\":11133:11137   */\n      0x7f\n        /* \"#utility.yul\":11125:11131   */\n      dup3\n        /* \"#utility.yul\":11121:11138   */\n      and\n        /* \"#utility.yul\":11111:11138   */\n      swap2\n      pop\n        /* \"#utility.yul\":11067:11148   */\n    tag_256:\n        /* \"#utility.yul\":11195:11197   */\n      0x20\n        /* \"#utility.yul\":11187:11193   */\n      dup3\n        /* \"#utility.yul\":11184:11198   */\n      lt\n        /* \"#utility.yul\":11164:11182   */\n      dup2\n        /* \"#utility.yul\":11161:11199   */\n      sub\n        /* \"#utility.yul\":11158:11242   */\n      tag_257\n      jumpi\n        /* \"#utility.yul\":11214:11232   */\n      tag_258\n      tag_120\n      jump\t// in\n    tag_258:\n        /* \"#utility.yul\":11158:11242   */\n    tag_257:\n        /* \"#utility.yul\":10979:11248   */\n      pop\n        /* \"#utility.yul\":10928:11248   */\n      swap2\n      swap1\n      pop\n      jump\t// out\n        /* \"#utility.yul\":11254:11395   */\n    tag_121:\n        /* \"#utility.yul\":11303:11307   */\n      0x00\n        /* \"#utility.yul\":11326:11329   */\n      dup2\n        /* \"#utility.yul\":11318:11329   */\n      swap1\n      pop\n        /* \"#utility.yul\":11349:11352   */\n      dup2\n        /* \"#utility.yul\":11346:11347   */\n      0x00\n        /* \"#utility.yul\":11339:11353   */\n      mstore\n        /* \"#utility.yul\":11383:11387   */\n      0x20\n        /* \"#utility.yul\":11380:11381   */\n      0x00\n        /* \"#utility.yul\":11370:11388   */\n      keccak256\n        /* \"#utility.yul\":11362:11388   */\n      swap1\n      pop\n        /* \"#utility.yul\":11254:11395   */\n      swap2\n      swap1\n      pop\n      jump\t// out\n        /* \"#utility.yul\":11401:11494   */\n    tag_122:\n        /* \"#utility.yul\":11438:11444   */\n      0x00\n        /* \"#utility.yul\":11485:11487   */\n      0x20\n        /* \"#utility.yul\":11480:11482   */\n      0x1f\n        /* \"#utility.yul\":11473:11478   */\n      dup4\n        /* \"#utility.yul\":11469:11483   */\n      add\n        /* \"#utility.yul\":11465:11488   */\n      div\n        /* \"#utility.yul\":11455:11488   */\n      swap1\n      pop\n        /* \"#utility.yul\":11401:11494   */\n      swap2\n      swap1\n      pop\n      jump\t// out\n        /* \"#utility.yul\":11500:11607   */\n    tag_123:\n        /* \"#utility.yul\":11544:11552   */\n      0x00\n        /* \"#utility.yul\":11594:11599   */\n      dup3\n        /* \"#utility.yul\":11588:11592   */\n      dup3\n        /* \"#utility.yul\":11584:11600   */\n      shl\n        /* \"#utility.yul\":11563:11600   */\n      swap1\n      pop\n        /* \"#utility.yul\":11500:11607   */\n      swap3\n      swap2\n      pop\n      pop\n      jump\t// out\n        /* \"#utility.yul\":11613:12006   */\n    tag_124:\n        /* \"#utility.yul\":11682:11688   */\n      0x00\n        /* \"#utility.yul\":11732:11733   */\n      0x08\n        /* \"#utility.yul\":11720:11730   */\n      dup4\n        /* \"#utility.yul\":11716:11734   */\n      mul\n        /* \"#utility.yul\":11755:11852   */\n      tag_263\n        /* \"#utility.yul\":11785:11851   */\n      0xffffffffffffffffffffffffffffffffffffffffffffffffffffffffffffffff\n        /* \"#utility.yul\":11774:11783   */\n      dup3\n        /* \"#utility.yul\":11755:11852   */\n      tag_123\n      jump\t// in\n    tag_263:\n        /* \"#utility.yul\":11873:11912   */\n      tag_264\n        /* \"#utility.yul\":11903:11911   */\n      dup7\n        /* \"#utility.yul\":11892:11901   */\n      dup4\n        /* \"#utility.yul\":11873:11912   */\n      tag_123\n      jump\t// in\n    tag_264:\n        /* \"#utility.yul\":11861:11912   */\n      swap6\n      pop\n        /* \"#utility.yul\":11945:11949   */\n      dup1\n        /* \"#utility.yul\":11941:11950   */\n      not\n        /* \"#utility.yul\":11934:11939   */\n      dup5\n        /* \"#utility.yul\":11930:11951   */\n      and\n        /* \"#utility.yul\":11921:11951   */\n      swap4\n      pop\n        /* \"#utility.yul\":11994:11998   */\n      dup1\n        /* \"#utility.yul\":11984:11992   */\n      dup7\n        /* \"#utility.yul\":11980:11999   */\n      and\n        /* \"#utility.yul\":11973:11978   */\n      dup5\n        /* \"#utility.yul\":11970:12000   */\n      or\n        /* \"#utility.yul\":11960:12000   */\n      swap3\n      pop\n        /* \"#utility.yul\":11689:12006   */\n      pop\n      pop\n        /* \"#utility.yul\":11613:12006   */\n      swap4\n      swap3\n      pop\n      pop\n      pop\n      jump\t// out\n        /* \"#utility.yul\":12012:12072   */\n    tag_125:\n        /* \"#utility.yul\":12040:12043   */\n      0x00\n        /* \"#utility.yul\":12061:12066   */\n      dup2\n        /* \"#utility.yul\":12054:12066   */\n      swap1\n      pop\n        /* \"#utility.yul\":12012:12072   */\n      swap2\n      swap1\n      pop\n      jump\t// out\n        /* \"#utility.yul\":12078:12220   */\n    tag_126:\n        /* \"#utility.yul\":12128:12137   */\n      0x00\n        /* \"#utility.yul\":12161:12214   */\n      tag_267\n        /* \"#utility.yul\":12179:12213   */\n      tag_268\n        /* \"#utility.yul\":12188:12212   */\n      tag_269\n        /* \"#utility.yul\":12206:12211   */\n      dup5\n        /* \"#utility.yul\":12188:12212   */\n      tag_97\n      jump\t// in\n    tag_269:\n        /* \"#utility.yul\":12179:12213   */\n      tag_125\n      jump\t// in\n    tag_268:\n        /* \"#utility.yul\":12161:12214   */\n      tag_97\n      jump\t// in\n    tag_267:\n        /* \"#utility.yul\":12148:12214   */\n      swap1\n      pop\n        /* \"#utility.yul\":12078:12220   */\n      swap2\n      swap1\n      pop\n      jump\t// out\n        /* \"#utility.yul\":12226:12301   */\n    tag_127:\n        /* \"#utility.yul\":12269:12272   */\n      0x00\n        /* \"#utility.yul\":12290:12295   */\n      dup2\n        /* \"#utility.yul\":12283:12295   */\n      swap1\n      pop\n        /* \"#utility.yul\":12226:12301   */\n      swap2\n      swap1\n      pop\n      jump\t// out\n        /* \"#utility.yul\":12307:12576   */\n    tag_128:\n        /* \"#utility.yul\":12417:12456   */\n      tag_272\n        /* \"#utility.yul\":12448:12455   */\n      dup4\n        /* \"#utility.yul\":12417:12456   */\n      tag_126\n      jump\t// in\n    tag_272:\n        /* \"#utility.yul\":12478:12569   */\n      tag_273\n        /* \"#utility.yul\":12527:12568   */\n      tag_274\n        /* \"#utility.yul\":12551:12567   */\n      dup3\n        /* \"#utility.yul\":12527:12568   */\n      tag_127\n      jump\t// in\n    tag_274:\n        /* \"#utility.yul\":12519:12525   */\n      dup5\n        /* \"#utility.yul\":12512:12516   */\n      dup5\n        /* \"#utility.yul\":12506:12517   */\n      sload\n        /* \"#utility.yul\":12478:12569   */\n      tag_124\n      jump\t// in\n    tag_273:\n        /* \"#utility.yul\":12472:12476   */\n      dup3\n        /* \"#utility.yul\":12465:12570   */\n      sstore\n        /* \"#utility.yul\":12383:12576   */\n      pop\n        /* \"#utility.yul\":12307:12576   */\n      pop\n      pop\n      pop\n      jump\t// out\n        /* \"#utility.yul\":12582:12655   */\n    tag_129:\n        /* \"#utility.yul\":12627:12630   */\n      0x00\n        /* \"#utility.yul\":12582:12655   */\n      swap1\n      jump\t// out\n        /* \"#utility.yul\":12661:12850   */\n    tag_130:\n        /* \"#utility.yul\":12738:12770   */\n      tag_277\n      tag_129\n      jump\t// in\n    tag_277:\n        /* \"#utility.yul\":12779:12844   */\n      tag_278\n        /* \"#utility.yul\":12837:12843   */\n      dup2\n        /* \"#utility.yul\":12829:12835   */\n      dup5\n        /* \"#utility.yul\":12823:12827   */\n      dup5\n        /* \"#utility.yul\":12779:12844   */\n      tag_128\n      jump\t// in\n    tag_278:\n        /* \"#utility.yul\":12714:12850   */\n      pop\n        /* \"#utility.yul\":12661:12850   */\n      pop\n      pop\n      jump\t// out\n        /* \"#utility.yul\":12856:13042   */\n    tag_131:\n        /* \"#utility.yul\":12916:13036   */\n    tag_280:\n        /* \"#utility.yul\":12933:12936   */\n      dup2\n        /* \"#utility.yul\":12926:12931   */\n      dup2\n        /* \"#utility.yul\":12923:12937   */\n      lt\n        /* \"#utility.yul\":12916:13036   */\n      iszero\n      tag_282\n      jumpi\n        /* \"#utility.yul\":12987:13026   */\n      tag_283\n        /* \"#utility.yul\":13024:13025   */\n      0x00\n        /* \"#utility.yul\":13017:13022   */\n      dup3\n        /* \"#utility.yul\":12987:13026   */\n      tag_130\n      jump\t// in\n    tag_283:\n        /* \"#utility.yul\":12960:12961   */\n      0x01\n        /* \"#utility.yul\":12953:12958   */\n      dup2\n        /* \"#utility.yul\":12949:12962   */\n      add\n        /* \"#utility.yul\":12940:12962   */\n      swap1\n      pop\n        /* \"#utility.yul\":12916:13036   */\n      jump(tag_280)\n    tag_282:\n        /* \"#utility.yul\":12856:13042   */\n      pop\n      pop\n      jump\t// out\n        /* \"#utility.yul\":13048:13591   */\n    tag_132:\n        /* \"#utility.yul\":13149:13151   */\n      0x1f\n        /* \"#utility.yul\":13144:13147   */\n      dup3\n        /* \"#utility.yul\":13141:13152   */\n      gt\n        /* \"#utility.yul\":13138:13584   */\n      iszero\n      tag_285\n      jumpi\n        /* \"#utility.yul\":13183:13221   */\n      tag_286\n        /* \"#utility.yul\":13215:13220   */\n      dup2\n        /* \"#utility.yul\":13183:13221   */\n      tag_121\n      jump\t// in\n    tag_286:\n        /* \"#utility.yul\":13267:13296   */\n      tag_287\n        /* \"#utility.yul\":13285:13295   */\n      dup5\n        /* \"#utility.yul\":13267:13296   */\n      tag_122\n      jump\t// in\n    tag_287:\n        /* \"#utility.yul\":13257:13265   */\n      dup2\n        /* \"#utility.yul\":13253:13297   */\n      add\n        /* \"#utility.yul\":13450:13452   */\n      0x20\n        /* \"#utility.yul\":13438:13448   */\n      dup6\n        /* \"#utility.yul\":13435:13453   */\n      lt\n        /* \"#utility.yul\":13432:13481   */\n      iszero\n      tag_288\n      jumpi\n        /* \"#utility.yul\":13471:13479   */\n      dup2\n        /* \"#utility.yul\":13456:13479   */\n      swap1\n      pop\n        /* \"#utility.yul\":13432:13481   */\n    tag_288:\n        /* \"#utility.yul\":13494:13574   */\n      tag_289\n        /* \"#utility.yul\":13550:13572   */\n      tag_290\n        /* \"#utility.yul\":13568:13571   */\n      dup6\n        /* \"#utility.yul\":13550:13572   */\n      tag_122\n      jump\t// in\n    tag_290:\n        /* \"#utility.yul\":13540:13548   */\n      dup4\n        /* \"#utility.yul\":13536:13573   */\n      add\n        /* \"#utility.yul\":13523:13534   */\n      dup3\n        /* \"#utility.yul\":13494:13574   */\n      tag_131\n      jump\t// in\n    tag_289:\n        /* \"#utility.yul\":13153:13584   */\n      pop\n      pop\n        /* \"#utility.yul\":13138:13584   */\n    tag_285:\n        /* \"#utility.yul\":13048:13591   */\n      pop\n      pop\n      pop\n      jump\t// out\n        /* \"#utility.yul\":13597:13714   */\n    tag_133:\n        /* \"#utility.yul\":13651:13659   */\n      0x00\n        /* \"#utility.yul\":13701:13706   */\n      dup3\n        /* \"#utility.yul\":13695:13699   */\n      dup3\n        /* \"#utility.yul\":13691:13707   */\n      shr\n        /* \"#utility.yul\":13670:13707   */\n      swap1\n      pop\n        /* \"#utility.yul\":13597:13714   */\n      swap3\n      swap2\n      pop\n      pop\n      jump\t// out\n        /* \"#utility.yul\":13720:13889   */\n    tag_134:\n        /* \"#utility.yul\":13764:13770   */\n      0x00\n        /* \"#utility.yul\":13797:13848   */\n      tag_293\n        /* \"#utility.yul\":13845:13846   */\n      0x00\n        /* \"#utility.yul\":13841:13847   */\n      not\n        /* \"#utility.yul\":13833:13838   */\n      dup5\n        /* \"#utility.yul\":13830:13831   */\n      0x08\n        /* \"#utility.yul\":13826:13839   */\n      mul\n        /* \"#utility.yul\":13797:13848   */\n      tag_133\n      jump\t// in\n    tag_293:\n        /* \"#utility.yul\":13793:13849   */\n      not\n        /* \"#utility.yul\":13878:13882   */\n      dup1\n        /* \"#utility.yul\":13872:13876   */\n      dup4\n        /* \"#utility.yul\":13868:13883   */\n      and\n        /* \"#utility.yul\":13858:13883   */\n      swap2\n      pop\n        /* \"#utility.yul\":13771:13889   */\n      pop\n        /* \"#utility.yul\":13720:13889   */\n      swap3\n      swap2\n      pop\n      pop\n      jump\t// out\n        /* \"#utility.yul\":13894:14189   */\n    tag_135:\n        /* \"#utility.yul\":13970:13974   */\n      0x00\n        /* \"#utility.yul\":14116:14145   */\n      tag_295\n        /* \"#utility.yul\":14141:14144   */\n      dup4\n        /* \"#utility.yul\":14135:14139   */\n      dup4\n        /* \"#utility.yul\":14116:14145   */\n      tag_134\n      jump\t// in\n    tag_295:\n        /* \"#utility.yul\":14108:14145   */\n      swap2\n      pop\n        /* \"#utility.yul\":14178:14181   */\n      dup3\n        /* \"#utility.yul\":14175:14176   */\n      0x02\n        /* \"#utility.yul\":14171:14182   */\n      mul\n        /* \"#utility.yul\":14165:14169   */\n      dup3\n        /* \"#utility.yul\":14162:14183   */\n      or\n        /* \"#utility.yul\":14154:14183   */\n      swap1\n      pop\n        /* \"#utility.yul\":13894:14189   */\n      swap3\n      swap2\n      pop\n      pop\n      jump\t// out\n        /* \"#utility.yul\":14194:15589   */\n    tag_41:\n        /* \"#utility.yul\":14311:14348   */\n      tag_297\n        /* \"#utility.yul\":14344:14347   */\n      dup3\n        /* \"#utility.yul\":14311:14348   */\n      tag_101\n      jump\t// in\n    tag_297:\n        /* \"#utility.yul\":14413:14431   */\n      0xffffffffffffffff\n        /* \"#utility.yul\":14405:14411   */\n      dup2\n        /* \"#utility.yul\":14402:14432   */\n      gt\n        /* \"#utility.yul\":14399:14455   */\n      iszero\n      tag_298\n      jumpi\n        /* \"#utility.yul\":14435:14453   */\n      tag_299\n      tag_69\n      jump\t// in\n    tag_299:\n        /* \"#utility.yul\":14399:14455   */\n    tag_298:\n        /* \"#utility.yul\":14479:14517   */\n      tag_300\n        /* \"#utility.yul\":14511:14515   */\n      dup3\n        /* \"#utility.yul\":14505:14516   */\n      sload\n        /* \"#utility.yul\":14479:14517   */\n      tag_45\n      jump\t// in\n    tag_300:\n        /* \"#utility.yul\":14564:14631   */\n      tag_301\n        /* \"#utility.yul\":14624:14630   */\n      dup3\n        /* \"#utility.yul\":14616:14622   */\n      dup3\n        /* \"#utility.yul\":14610:14614   */\n      dup6\n        /* \"#utility.yul\":14564:14631   */\n      tag_132\n      jump\t// in\n    tag_301:\n        /* \"#utility.yul\":14658:14659   */\n      0x00\n        /* \"#utility.yul\":14682:14686   */\n      0x20\n        /* \"#utility.yul\":14669:14686   */\n      swap1\n      pop\n        /* \"#utility.yul\":14714:14716   */\n      0x1f\n        /* \"#utility.yul\":14706:14712   */\n      dup4\n        /* \"#utility.yul\":14703:14717   */\n      gt\n        /* \"#utility.yul\":14731:14732   */\n      0x01\n        /* \"#utility.yul\":14726:15344   */\n      dup2\n      eq\n      tag_303\n      jumpi\n        /* \"#utility.yul\":15388:15389   */\n      0x00\n        /* \"#utility.yul\":15405:15411   */\n      dup5\n        /* \"#utility.yul\":15402:15479   */\n      iszero\n      tag_304\n      jumpi\n        /* \"#utility.yul\":15454:15463   */\n      dup3\n        /* \"#utility.yul\":15449:15452   */\n      dup8\n        /* \"#utility.yul\":15445:15464   */\n      add\n        /* \"#utility.yul\":15439:15465   */\n      mload\n        /* \"#utility.yul\":15430:15465   */\n      swap1\n      pop\n        /* \"#utility.yul\":15402:15479   */\n    tag_304:\n        /* \"#utility.yul\":15505:15572   */\n      tag_305\n        /* \"#utility.yul\":15565:15571   */\n      dup6\n        /* \"#utility.yul\":15558:15563   */\n      dup3\n        /* \"#utility.yul\":15505:15572   */\n      tag_135\n      jump\t// in\n    tag_305:\n        /* \"#utility.yul\":15499:15503   */\n      dup7\n        /* \"#utility.yul\":15492:15573   */\n      sstore\n        /* \"#utility.yul\":15361:15583   */\n      pop\n        /* \"#utility.yul\":14696:15583   */\n      jump(tag_302)\n        /* \"#utility.yul\":14726:15344   */\n    tag_303:\n        /* \"#utility.yul\":14778:14782   */\n      0x1f\n        /* \"#utility.yul\":14774:14783   */\n      not\n        /* \"#utility.yul\":14766:14772   */\n      dup5\n        /* \"#utility.yul\":14762:14784   */\n      and\n        /* \"#utility.yul\":14812:14849   */\n      tag_306\n        /* \"#utility.yul\":14844:14848   */\n      dup7\n        /* \"#utility.yul\":14812:14849   */\n      tag_121\n      jump\t// in\n    tag_306:\n        /* \"#utility.yul\":14871:14872   */\n      0x00\n        /* \"#utility.yul\":14885:15093   */\n    tag_307:\n        /* \"#utility.yul\":14899:14906   */\n      dup3\n        /* \"#utility.yul\":14896:14897   */\n      dup2\n        /* \"#utility.yul\":14893:14907   */\n      lt\n        /* \"#utility.yul\":14885:15093   */\n      iszero\n      tag_309\n      jumpi\n        /* \"#utility.yul\":14978:14987   */\n      dup5\n        /* \"#utility.yul\":14973:14976   */\n      dup10\n        /* \"#utility.yul\":14969:14988   */\n      add\n        /* \"#utility.yul\":14963:14989   */\n      mload\n        /* \"#utility.yul\":14955:14961   */\n      dup3\n        /* \"#utility.yul\":14948:14990   */\n      sstore\n        /* \"#utility.yul\":15029:15030   */\n      0x01\n        /* \"#utility.yul\":15021:15027   */\n      dup3\n        /* \"#utility.yul\":15017:15031   */\n      add\n        /* \"#utility.yul\":15007:15031   */\n      swap2\n      pop\n        /* \"#utility.yul\":15076:15078   */\n      0x20\n        /* \"#utility.yul\":15065:15074   */\n      dup6\n        /* \"#utility.yul\":15061:15079   */\n      add\n        /* \"#utility.yul\":15048:15079   */\n      swap5\n      pop\n        /* \"#utility.yul\":14922:14926   */\n      0x20\n        /* \"#utility.yul\":14919:14920   */\n      dup2\n        /* \"#utility.yul\":14915:14927   */\n      add\n        /* \"#utility.yul\":14910:14927   */\n      swap1\n      pop\n        /* \"#utility.yul\":14885:15093   */\n      jump(tag_307)\n    tag_309:\n        /* \"#utility.yul\":15121:15127   */\n      dup7\n        /* \"#utility.yul\":15112:15119   */\n      dup4\n        /* \"#utility.yul\":15109:15128   */\n      lt\n        /* \"#utility.yul\":15106:15285   */\n      iszero\n      tag_310\n      jumpi\n        /* \"#utility.yul\":15179:15188   */\n      dup5\n        /* \"#utility.yul\":15174:15177   */\n      dup10\n        /* \"#utility.yul\":15170:15189   */\n      add\n        /* \"#utility.yul\":15164:15190   */\n      mload\n        /* \"#utility.yul\":15222:15270   */\n      tag_311\n        /* \"#utility.yul\":15264:15268   */\n      0x1f\n        /* \"#utility.yul\":15256:15262   */\n      dup10\n        /* \"#utility.yul\":15252:15269   */\n      and\n        /* \"#utility.yul\":15241:15250   */\n      dup3\n        /* \"#utility.yul\":15222:15270   */\n      tag_134\n      jump\t// in\n    tag_311:\n        /* \"#utility.yul\":15214:15220   */\n      dup4\n        /* \"#utility.yul\":15207:15271   */\n      sstore\n        /* \"#utility.yul\":15129:15285   */\n      pop\n        /* \"#utility.yul\":15106:15285   */\n    tag_310:\n        /* \"#utility.yul\":15331:15332   */\n      0x01\n        /* \"#utility.yul\":15327:15328   */\n      0x02\n        /* \"#utility.yul\":15319:15325   */\n      dup9\n        /* \"#utility.yul\":15315:15329   */\n      mul\n        /* \"#utility.yul\":15311:15333   */\n      add\n        /* \"#utility.yul\":15305:15309   */\n      dup9\n        /* \"#utility.yul\":15298:15334   */\n      sstore\n        /* \"#utility.yul\":14733:15344   */\n      pop\n      pop\n      pop\n        /* \"#utility.yul\":14696:15583   */\n    tag_302:\n      pop\n        /* \"#utility.yul\":14286:15589   */\n      pop\n      pop\n      pop\n        /* \"#utility.yul\":14194:15589   */\n      pop\n      pop\n      jump\t// out\n        /* \"#utility.yul\":15595:15775   */\n    tag_136:\n        /* \"#utility.yul\":15643:15720   */\n      0x4e487b7100000000000000000000000000000000000000000000000000000000\n        /* \"#utility.yul\":15640:15641   */\n      0x00\n        /* \"#utility.yul\":15633:15721   */\n      mstore\n        /* \"#utility.yul\":15740:15744   */\n      0x11\n        /* \"#utility.yul\":15737:15738   */\n      0x04\n        /* \"#utility.yul\":15730:15745   */\n      mstore\n        /* \"#utility.yul\":15764:15768   */\n      0x24\n        /* \"#utility.yul\":15761:15762   */\n      0x00\n        /* \"#utility.yul\":15754:15769   */\n      revert\n        /* \"#utility.yul\":15781:16014   */\n    tag_43:\n        /* \"#utility.yul\":15820:15823   */\n      0x00\n        /* \"#utility.yul\":15843:15867   */\n      tag_314\n        /* \"#utility.yul\":15861:15866   */\n      dup3\n        /* \"#utility.yul\":15843:15867   */\n      tag_97\n      jump\t// in\n    tag_314:\n        /* \"#utility.yul\":15834:15867   */\n      swap2\n      pop\n        /* \"#utility.yul\":15889:15955   */\n      0xffffffffffffffffffffffffffffffffffffffffffffffffffffffffffffffff\n        /* \"#utility.yul\":15882:15887   */\n      dup3\n        /* \"#utility.yul\":15879:15956   */\n      sub\n        /* \"#utility.yul\":15876:15979   */\n      tag_315\n      jumpi\n        /* \"#utility.yul\":15959:15977   */\n      tag_316\n      tag_136\n      jump\t// in\n    tag_316:\n        /* \"#utility.yul\":15876:15979   */\n    tag_315:\n        /* \"#utility.yul\":16006:16007   */\n      0x01\n        /* \"#utility.yul\":15999:16004   */\n      dup3\n        /* \"#utility.yul\":15995:16008   */\n      add\n        /* \"#utility.yul\":15988:16008   */\n      swap1\n      pop\n        /* \"#utility.yul\":15781:16014   */\n      swap2\n      swap1\n      pop\n      jump\t// out\n        /* \"#utility.yul\":16020:16258   */\n    tag_137:\n        /* \"#utility.yul\":16160:16194   */\n      0x466f72206465706f736974206f7220776974686472617720457468657220796f\n        /* \"#utility.yul\":16156:16157   */\n      0x00\n        /* \"#utility.yul\":16148:16154   */\n      dup3\n        /* \"#utility.yul\":16144:16158   */\n      add\n        /* \"#utility.yul\":16137:16195   */\n      mstore\n        /* \"#utility.yul\":16229:16250   */\n      0x75206d757374206265207468652061646d696e00000000000000000000000000\n        /* \"#utility.yul\":16224:16226   */\n      0x20\n        /* \"#utility.yul\":16216:16222   */\n      dup3\n        /* \"#utility.yul\":16212:16227   */\n      add\n        /* \"#utility.yul\":16205:16251   */\n      mstore\n        /* \"#utility.yul\":16020:16258   */\n      pop\n      jump\t// out\n        /* \"#utility.yul\":16264:16630   */\n    tag_138:\n        /* \"#utility.yul\":16406:16409   */\n      0x00\n        /* \"#utility.yul\":16427:16494   */\n      tag_319\n        /* \"#utility.yul\":16491:16493   */\n      0x33\n        /* \"#utility.yul\":16486:16489   */\n      dup4\n        /* \"#utility.yul\":16427:16494   */\n      tag_102\n      jump\t// in\n    tag_319:\n        /* \"#utility.yul\":16420:16494   */\n      swap2\n      pop\n        /* \"#utility.yul\":16503:16596   */\n      tag_320\n        /* \"#utility.yul\":16592:16595   */\n      dup3\n        /* \"#utility.yul\":16503:16596   */\n      tag_137\n      jump\t// in\n    tag_320:\n        /* \"#utility.yul\":16621:16623   */\n      0x40\n        /* \"#utility.yul\":16616:16619   */\n      dup3\n        /* \"#utility.yul\":16612:16624   */\n      add\n        /* \"#utility.yul\":16605:16624   */\n      swap1\n      pop\n        /* \"#utility.yul\":16264:16630   */\n      swap2\n      swap1\n      pop\n      jump\t// out\n        /* \"#utility.yul\":16636:17055   */\n    tag_53:\n        /* \"#utility.yul\":16802:16806   */\n      0x00\n        /* \"#utility.yul\":16840:16842   */\n      0x20\n        /* \"#utility.yul\":16829:16838   */\n      dup3\n        /* \"#utility.yul\":16825:16843   */\n      add\n        /* \"#utility.yul\":16817:16843   */\n      swap1\n      pop\n        /* \"#utility.yul\":16889:16898   */\n      dup2\n        /* \"#utility.yul\":16883:16887   */\n      dup2\n        /* \"#utility.yul\":16879:16899   */\n      sub\n        /* \"#utility.yul\":16875:16876   */\n      0x00\n        /* \"#utility.yul\":16864:16873   */\n      dup4\n        /* \"#utility.yul\":16860:16877   */\n      add\n        /* \"#utility.yul\":16853:16900   */\n      mstore\n        /* \"#utility.yul\":16917:17048   */\n      tag_322\n        /* \"#utility.yul\":17043:17047   */\n      dup2\n        /* \"#utility.yul\":16917:17048   */\n      tag_138\n      jump\t// in\n    tag_322:\n        /* \"#utility.yul\":16909:17048   */\n      swap1\n      pop\n        /* \"#utility.yul\":16636:17055   */\n      swap2\n      swap1\n      pop\n      jump\t// out\n        /* \"#utility.yul\":17061:17208   */\n    tag_139:\n        /* \"#utility.yul\":17162:17173   */\n      0x00\n        /* \"#utility.yul\":17199:17202   */\n      dup2\n        /* \"#utility.yul\":17184:17202   */\n      swap1\n      pop\n        /* \"#utility.yul\":17061:17208   */\n      swap3\n      swap2\n      pop\n      pop\n      jump\t// out\n        /* \"#utility.yul\":17214:17328   */\n    tag_140:\n      pop\n      jump\t// out\n        /* \"#utility.yul\":17334:17732   */\n    tag_141:\n        /* \"#utility.yul\":17493:17496   */\n      0x00\n        /* \"#utility.yul\":17514:17597   */\n      tag_326\n        /* \"#utility.yul\":17595:17596   */\n      0x00\n        /* \"#utility.yul\":17590:17593   */\n      dup4\n        /* \"#utility.yul\":17514:17597   */\n      tag_139\n      jump\t// in\n    tag_326:\n        /* \"#utility.yul\":17507:17597   */\n      swap2\n      pop\n        /* \"#utility.yul\":17606:17699   */\n      tag_327\n        /* \"#utility.yul\":17695:17698   */\n      dup3\n        /* \"#utility.yul\":17606:17699   */\n      tag_140\n      jump\t// in\n    tag_327:\n        /* \"#utility.yul\":17724:17725   */\n      0x00\n        /* \"#utility.yul\":17719:17722   */\n      dup3\n        /* \"#utility.yul\":17715:17726   */\n      add\n        /* \"#utility.yul\":17708:17726   */\n      swap1\n      pop\n        /* \"#utility.yul\":17334:17732   */\n      swap2\n      swap1\n      pop\n      jump\t// out\n        /* \"#utility.yul\":17738:18117   */\n    tag_56:\n        /* \"#utility.yul\":17922:17925   */\n      0x00\n        /* \"#utility.yul\":17944:18091   */\n      tag_329\n        /* \"#utility.yul\":18087:18090   */\n      dup3\n        /* \"#utility.yul\":17944:18091   */\n      tag_141\n      jump\t// in\n    tag_329:\n        /* \"#utility.yul\":17937:18091   */\n      swap2\n      pop\n        /* \"#utility.yul\":18108:18111   */\n      dup2\n        /* \"#utility.yul\":18101:18111   */\n      swap1\n      pop\n        /* \"#utility.yul\":17738:18117   */\n      swap2\n      swap1\n      pop\n      jump\t// out\n        /* \"#utility.yul\":18123:18297   */\n    tag_142:\n        /* \"#utility.yul\":18263:18289   */\n      0x4661696c656420746f2077697468647261772045746865720000000000000000\n        /* \"#utility.yul\":18259:18260   */\n      0x00\n        /* \"#utility.yul\":18251:18257   */\n      dup3\n        /* \"#utility.yul\":18247:18261   */\n      add\n        /* \"#utility.yul\":18240:18290   */\n      mstore\n        /* \"#utility.yul\":18123:18297   */\n      pop\n      jump\t// out\n        /* \"#utility.yul\":18303:18669   */\n    tag_143:\n        /* \"#utility.yul\":18445:18448   */\n      0x00\n        /* \"#utility.yul\":18466:18533   */\n      tag_332\n        /* \"#utility.yul\":18530:18532   */\n      0x18\n        /* \"#utility.yul\":18525:18528   */\n      dup4\n        /* \"#utility.yul\":18466:18533   */\n      tag_102\n      jump\t// in\n    tag_332:\n        /* \"#utility.yul\":18459:18533   */\n      swap2\n      pop\n        /* \"#utility.yul\":18542:18635   */\n      tag_333\n        /* \"#utility.yul\":18631:18634   */\n      dup3\n        /* \"#utility.yul\":18542:18635   */\n      tag_142\n      jump\t// in\n    tag_333:\n        /* \"#utility.yul\":18660:18662   */\n      0x20\n        /* \"#utility.yul\":18655:18658   */\n      dup3\n        /* \"#utility.yul\":18651:18663   */\n      add\n        /* \"#utility.yul\":18644:18663   */\n      swap1\n      pop\n        /* \"#utility.yul\":18303:18669   */\n      swap2\n      swap1\n      pop\n      jump\t// out\n        /* \"#utility.yul\":18675:19094   */\n    tag_62:\n        /* \"#utility.yul\":18841:18845   */\n      0x00\n        /* \"#utility.yul\":18879:18881   */\n      0x20\n        /* \"#utility.yul\":18868:18877   */\n      dup3\n        /* \"#utility.yul\":18864:18882   */\n      add\n        /* \"#utility.yul\":18856:18882   */\n      swap1\n      pop\n        /* \"#utility.yul\":18928:18937   */\n      dup2\n        /* \"#utility.yul\":18922:18926   */\n      dup2\n        /* \"#utility.yul\":18918:18938   */\n      sub\n        /* \"#utility.yul\":18914:18915   */\n      0x00\n        /* \"#utility.yul\":18903:18912   */\n      dup4\n        /* \"#utility.yul\":18899:18916   */\n      add\n        /* \"#utility.yul\":18892:18939   */\n      mstore\n        /* \"#utility.yul\":18956:19087   */\n      tag_335\n        /* \"#utility.yul\":19082:19086   */\n      dup2\n        /* \"#utility.yul\":18956:19087   */\n      tag_143\n      jump\t// in\n    tag_335:\n        /* \"#utility.yul\":18948:19087   */\n      swap1\n      pop\n        /* \"#utility.yul\":18675:19094   */\n      swap2\n      swap1\n      pop\n      jump\t// out\n        /* \"#utility.yul\":19100:19280   */\n    tag_84:\n        /* \"#utility.yul\":19148:19225   */\n      0x4e487b7100000000000000000000000000000000000000000000000000000000\n        /* \"#utility.yul\":19145:19146   */\n      0x00\n        /* \"#utility.yul\":19138:19226   */\n      mstore\n        /* \"#utility.yul\":19245:19249   */\n      0x32\n        /* \"#utility.yul\":19242:19243   */\n      0x04\n        /* \"#utility.yul\":19235:19250   */\n      mstore\n        /* \"#utility.yul\":19269:19273   */\n      0x24\n        /* \"#utility.yul\":19266:19267   */\n      0x00\n        /* \"#utility.yul\":19259:19274   */\n      revert\n\n    auxdata: 0xa26469706673582212205142e27531fa5f59cc4cdbdbb86b3b00481b844ec9e8e97719e7d488ce04938c64736f6c63430008180033\n}\n",
				"bytecode": {
					"linkReferences": {},
					"object": "608060405234801562000010575f80fd5b50604051620010bc380380620010bc8339818101604052810190620000369190620000e8565b805f806101000a81548173ffffffffffffffffffffffffffffffffffffffff021916908373ffffffffffffffffffffffffffffffffffffffff1602179055505f6001819055505062000118565b5f80fd5b5f73ffffffffffffffffffffffffffffffffffffffff82169050919050565b5f620000b28262000087565b9050919050565b620000c481620000a6565b8114620000cf575f80fd5b50565b5f81519050620000e281620000b9565b92915050565b5f602082840312156200010057620000ff62000083565b5b5f6200010f84828501620000d2565b91505092915050565b610f9680620001265f395ff3fe608060405260043610610054575f3560e01c80633b3f07dd1461005857806361bc221a14610074578063b077a31f1461009e578063ce56c454146100db578063dda0a81a14610103578063f851a4401461012d575b5f80fd5b610072600480360381019061006d919061073e565b610157565b005b34801561007f575f80fd5b506100886101c0565b60405161009591906107a7565b60405180910390f35b3480156100a9575f80fd5b506100c460048036038101906100bf91906107c0565b6101c6565b6040516100d2929190610865565b60405180910390f35b3480156100e6575f80fd5b5061010160048036038101906100fc91906108ed565b61026c565b005b34801561010e575f80fd5b506101176103a6565b6040516101249190610a77565b60405180910390f35b348015610138575f80fd5b50610141610582565b60405161014e9190610aa6565b60405180910390f35b5f60405180604001604052808481526020018381525090508060025f60015481526020019081526020015f205f820151815f0190816101969190610cb9565b506020820151816001015590505060015f8154809291906101b690610db5565b9190505550505050565b60015481565b6002602052805f5260405f205f91509050805f0180546101e590610aec565b80601f016020809104026020016040519081016040528092919081815260200182805461021190610aec565b801561025c5780601f106102335761010080835404028352916020019161025c565b820191905f5260205f20905b81548152906001019060200180831161023f57829003601f168201915b5050505050908060010154905082565b5f8054906101000a900473ffffffffffffffffffffffffffffffffffffffff1673ffffffffffffffffffffffffffffffffffffffff163373ffffffffffffffffffffffffffffffffffffffff16146102f9576040517f08c379a00000000000000000000000000000000000000000000000000000000081526004016102f090610e6c565b60405180910390fd5b5f8173ffffffffffffffffffffffffffffffffffffffff168360405161031e90610eb7565b5f6040518083038185875af1925050503d805f8114610358576040519150601f19603f3d011682016040523d82523d5f602084013e61035d565b606091505b50509050806103a1576040517f08c379a000000000000000000000000000000000000000000000000000000000815260040161039890610f15565b60405180910390fd5b505050565b60605f8054906101000a900473ffffffffffffffffffffffffffffffffffffffff1673ffffffffffffffffffffffffffffffffffffffff163373ffffffffffffffffffffffffffffffffffffffff1614610435576040517f08c379a000000000000000000000000000000000000000000000000000000000815260040161042c90610e6c565b60405180910390fd5b5f60015467ffffffffffffffff811115610452576104516105e7565b5b60405190808252806020026020018201604052801561048b57816020015b6104786105a5565b8152602001906001900390816104705790505b5090505f5b60015481101561057a5760025f8281526020019081526020015f206040518060400160405290815f820180546104c590610aec565b80601f01602080910402602001604051908101604052809291908181526020018280546104f190610aec565b801561053c5780601f106105135761010080835404028352916020019161053c565b820191905f5260205f20905b81548152906001019060200180831161051f57829003601f168201915b5050505050815260200160018201548152505082828151811061056257610561610f33565b5b60200260200101819052508080600101915050610490565b508091505090565b5f8054906101000a900473ffffffffffffffffffffffffffffffffffffffff1681565b6040518060400160405280606081526020015f81525090565b5f604051905090565b5f80fd5b5f80fd5b5f80fd5b5f80fd5b5f601f19601f8301169050919050565b7f4e487b71000000000000000000000000000000000000000000000000000000005f52604160045260245ffd5b61061d826105d7565b810181811067ffffffffffffffff8211171561063c5761063b6105e7565b5b80604052505050565b5f61064e6105be565b905061065a8282610614565b919050565b5f67ffffffffffffffff821115610679576106786105e7565b5b610682826105d7565b9050602081019050919050565b828183375f83830152505050565b5f6106af6106aa8461065f565b610645565b9050828152602081018484840111156106cb576106ca6105d3565b5b6106d684828561068f565b509392505050565b5f82601f8301126106f2576106f16105cf565b5b813561070284826020860161069d565b91505092915050565b5f819050919050565b61071d8161070b565b8114610727575f80fd5b50565b5f8135905061073881610714565b92915050565b5f8060408385031215610754576107536105c7565b5b5f83013567ffffffffffffffff811115610771576107706105cb565b5b61077d858286016106de565b925050602061078e8582860161072a565b9150509250929050565b6107a18161070b565b82525050565b5f6020820190506107ba5f830184610798565b92915050565b5f602082840312156107d5576107d46105c7565b5b5f6107e28482850161072a565b91505092915050565b5f81519050919050565b5f82825260208201905092915050565b5f5b83811015610822578082015181840152602081019050610807565b5f8484015250505050565b5f610837826107eb565b61084181856107f5565b9350610851818560208601610805565b61085a816105d7565b840191505092915050565b5f6040820190508181035f83015261087d818561082d565b905061088c6020830184610798565b9392505050565b5f73ffffffffffffffffffffffffffffffffffffffff82169050919050565b5f6108bc82610893565b9050919050565b6108cc816108b2565b81146108d6575f80fd5b50565b5f813590506108e7816108c3565b92915050565b5f8060408385031215610903576109026105c7565b5b5f6109108582860161072a565b9250506020610921858286016108d9565b9150509250929050565b5f81519050919050565b5f82825260208201905092915050565b5f819050602082019050919050565b5f82825260208201905092915050565b5f61096e826107eb565b6109788185610954565b9350610988818560208601610805565b610991816105d7565b840191505092915050565b6109a58161070b565b82525050565b5f604083015f8301518482035f8601526109c58282610964565b91505060208301516109da602086018261099c565b508091505092915050565b5f6109f083836109ab565b905092915050565b5f602082019050919050565b5f610a0e8261092b565b610a188185610935565b935083602082028501610a2a85610945565b805f5b85811015610a655784840389528151610a4685826109e5565b9450610a51836109f8565b925060208a01995050600181019050610a2d565b50829750879550505050505092915050565b5f6020820190508181035f830152610a8f8184610a04565b905092915050565b610aa0816108b2565b82525050565b5f602082019050610ab95f830184610a97565b92915050565b7f4e487b71000000000000000000000000000000000000000000000000000000005f52602260045260245ffd5b5f6002820490506001821680610b0357607f821691505b602082108103610b1657610b15610abf565b5b50919050565b5f819050815f5260205f209050919050565b5f6020601f8301049050919050565b5f82821b905092915050565b5f60088302610b787fffffffffffffffffffffffffffffffffffffffffffffffffffffffffffffffff82610b3d565b610b828683610b3d565b95508019841693508086168417925050509392505050565b5f819050919050565b5f610bbd610bb8610bb38461070b565b610b9a565b61070b565b9050919050565b5f819050919050565b610bd683610ba3565b610bea610be282610bc4565b848454610b49565b825550505050565b5f90565b610bfe610bf2565b610c09818484610bcd565b505050565b5b81811015610c2c57610c215f82610bf6565b600181019050610c0f565b5050565b601f821115610c7157610c4281610b1c565b610c4b84610b2e565b81016020851015610c5a578190505b610c6e610c6685610b2e565b830182610c0e565b50505b505050565b5f82821c905092915050565b5f610c915f1984600802610c76565b1980831691505092915050565b5f610ca98383610c82565b9150826002028217905092915050565b610cc2826107eb565b67ffffffffffffffff811115610cdb57610cda6105e7565b5b610ce58254610aec565b610cf0828285610c30565b5f60209050601f831160018114610d21575f8415610d0f578287015190505b610d198582610c9e565b865550610d80565b601f198416610d2f86610b1c565b5f5b82811015610d5657848901518255600182019150602085019450602081019050610d31565b86831015610d735784890151610d6f601f891682610c82565b8355505b6001600288020188555050505b505050505050565b7f4e487b71000000000000000000000000000000000000000000000000000000005f52601160045260245ffd5b5f610dbf8261070b565b91507fffffffffffffffffffffffffffffffffffffffffffffffffffffffffffffffff8203610df157610df0610d88565b5b600182019050919050565b7f466f72206465706f736974206f7220776974686472617720457468657220796f5f8201527f75206d757374206265207468652061646d696e00000000000000000000000000602082015250565b5f610e566033836107f5565b9150610e6182610dfc565b604082019050919050565b5f6020820190508181035f830152610e8381610e4a565b9050919050565b5f81905092915050565b50565b5f610ea25f83610e8a565b9150610ead82610e94565b5f82019050919050565b5f610ec182610e97565b9150819050919050565b7f4661696c656420746f20776974686472617720457468657200000000000000005f82015250565b5f610eff6018836107f5565b9150610f0a82610ecb565b602082019050919050565b5f6020820190508181035f830152610f2c81610ef3565b9050919050565b7f4e487b71000000000000000000000000000000000000000000000000000000005f52603260045260245ffdfea26469706673582212205142e27531fa5f59cc4cdbdbb86b3b00481b844ec9e8e97719e7d488ce04938c64736f6c63430008180033",
					"opcodes": "PUSH1 0x80 PUSH1 0x40 MSTORE CALLVALUE DUP1 ISZERO PUSH3 0x10 JUMPI PUSH0 DUP1 REVERT JUMPDEST POP PUSH1 0x40 MLOAD PUSH3 0x10BC CODESIZE SUB DUP1 PUSH3 0x10BC DUP4 CODECOPY DUP2 DUP2 ADD PUSH1 0x40 MSTORE DUP2 ADD SWAP1 PUSH3 0x36 SWAP2 SWAP1 PUSH3 0xE8 JUMP JUMPDEST DUP1 PUSH0 DUP1 PUSH2 0x100 EXP DUP2 SLOAD DUP2 PUSH20 0xFFFFFFFFFFFFFFFFFFFFFFFFFFFFFFFFFFFFFFFF MUL NOT AND SWAP1 DUP4 PUSH20 0xFFFFFFFFFFFFFFFFFFFFFFFFFFFFFFFFFFFFFFFF AND MUL OR SWAP1 SSTORE POP PUSH0 PUSH1 0x1 DUP2 SWAP1 SSTORE POP POP PUSH3 0x118 JUMP JUMPDEST PUSH0 DUP1 REVERT JUMPDEST PUSH0 PUSH20 0xFFFFFFFFFFFFFFFFFFFFFFFFFFFFFFFFFFFFFFFF DUP3 AND SWAP1 POP SWAP2 SWAP1 POP JUMP JUMPDEST PUSH0 PUSH3 0xB2 DUP3 PUSH3 0x87 JUMP JUMPDEST SWAP1 POP SWAP2 SWAP1 POP JUMP JUMPDEST PUSH3 0xC4 DUP2 PUSH3 0xA6 JUMP JUMPDEST DUP2 EQ PUSH3 0xCF JUMPI PUSH0 DUP1 REVERT JUMPDEST POP JUMP JUMPDEST PUSH0 DUP2 MLOAD SWAP1 POP PUSH3 0xE2 DUP2 PUSH3 0xB9 JUMP JUMPDEST SWAP3 SWAP2 POP POP JUMP JUMPDEST PUSH0 PUSH1 0x20 DUP3 DUP5 SUB SLT ISZERO PUSH3 0x100 JUMPI PUSH3 0xFF PUSH3 0x83 JUMP JUMPDEST JUMPDEST PUSH0 PUSH3 0x10F DUP5 DUP3 DUP6 ADD PUSH3 0xD2 JUMP JUMPDEST SWAP2 POP POP SWAP3 SWAP2 POP POP JUMP JUMPDEST PUSH2 0xF96 DUP1 PUSH3 0x126 PUSH0 CODECOPY PUSH0 RETURN INVALID PUSH1 0x80 PUSH1 0x40 MSTORE PUSH1 0x4 CALLDATASIZE LT PUSH2 0x54 JUMPI PUSH0 CALLDATALOAD PUSH1 0xE0 SHR DUP1 PUSH4 0x3B3F07DD EQ PUSH2 0x58 JUMPI DUP1 PUSH4 0x61BC221A EQ PUSH2 0x74 JUMPI DUP1 PUSH4 0xB077A31F EQ PUSH2 0x9E JUMPI DUP1 PUSH4 0xCE56C454 EQ PUSH2 0xDB JUMPI DUP1 PUSH4 0xDDA0A81A EQ PUSH2 0x103 JUMPI DUP1 PUSH4 0xF851A440 EQ PUSH2 0x12D JUMPI JUMPDEST PUSH0 DUP1 REVERT JUMPDEST PUSH2 0x72 PUSH1 0x4 DUP1 CALLDATASIZE SUB DUP2 ADD SWAP1 PUSH2 0x6D SWAP2 SWAP1 PUSH2 0x73E JUMP JUMPDEST PUSH2 0x157 JUMP JUMPDEST STOP JUMPDEST CALLVALUE DUP1 ISZERO PUSH2 0x7F JUMPI PUSH0 DUP1 REVERT JUMPDEST POP PUSH2 0x88 PUSH2 0x1C0 JUMP JUMPDEST PUSH1 0x40 MLOAD PUSH2 0x95 SWAP2 SWAP1 PUSH2 0x7A7 JUMP JUMPDEST PUSH1 0x40 MLOAD DUP1 SWAP2 SUB SWAP1 RETURN JUMPDEST CALLVALUE DUP1 ISZERO PUSH2 0xA9 JUMPI PUSH0 DUP1 REVERT JUMPDEST POP PUSH2 0xC4 PUSH1 0x4 DUP1 CALLDATASIZE SUB DUP2 ADD SWAP1 PUSH2 0xBF SWAP2 SWAP1 PUSH2 0x7C0 JUMP JUMPDEST PUSH2 0x1C6 JUMP JUMPDEST PUSH1 0x40 MLOAD PUSH2 0xD2 SWAP3 SWAP2 SWAP1 PUSH2 0x865 JUMP JUMPDEST PUSH1 0x40 MLOAD DUP1 SWAP2 SUB SWAP1 RETURN JUMPDEST CALLVALUE DUP1 ISZERO PUSH2 0xE6 JUMPI PUSH0 DUP1 REVERT JUMPDEST POP PUSH2 0x101 PUSH1 0x4 DUP1 CALLDATASIZE SUB DUP2 ADD SWAP1 PUSH2 0xFC SWAP2 SWAP1 PUSH2 0x8ED JUMP JUMPDEST PUSH2 0x26C JUMP JUMPDEST STOP JUMPDEST CALLVALUE DUP1 ISZERO PUSH2 0x10E JUMPI PUSH0 DUP1 REVERT JUMPDEST POP PUSH2 0x117 PUSH2 0x3A6 JUMP JUMPDEST PUSH1 0x40 MLOAD PUSH2 0x124 SWAP2 SWAP1 PUSH2 0xA77 JUMP JUMPDEST PUSH1 0x40 MLOAD DUP1 SWAP2 SUB SWAP1 RETURN JUMPDEST CALLVALUE DUP1 ISZERO PUSH2 0x138 JUMPI PUSH0 DUP1 REVERT JUMPDEST POP PUSH2 0x141 PUSH2 0x582 JUMP JUMPDEST PUSH1 0x40 MLOAD PUSH2 0x14E SWAP2 SWAP1 PUSH2 0xAA6 JUMP JUMPDEST PUSH1 0x40 MLOAD DUP1 SWAP2 SUB SWAP1 RETURN JUMPDEST PUSH0 PUSH1 0x40 MLOAD DUP1 PUSH1 0x40 ADD PUSH1 0x40 MSTORE DUP1 DUP5 DUP2 MSTORE PUSH1 0x20 ADD DUP4 DUP2 MSTORE POP SWAP1 POP DUP1 PUSH1 0x2 PUSH0 PUSH1 0x1 SLOAD DUP2 MSTORE PUSH1 0x20 ADD SWAP1 DUP2 MSTORE PUSH1 0x20 ADD PUSH0 KECCAK256 PUSH0 DUP3 ADD MLOAD DUP2 PUSH0 ADD SWAP1 DUP2 PUSH2 0x196 SWAP2 SWAP1 PUSH2 0xCB9 JUMP JUMPDEST POP PUSH1 0x20 DUP3 ADD MLOAD DUP2 PUSH1 0x1 ADD SSTORE SWAP1 POP POP PUSH1 0x1 PUSH0 DUP2 SLOAD DUP1 SWAP3 SWAP2 SWAP1 PUSH2 0x1B6 SWAP1 PUSH2 0xDB5 JUMP JUMPDEST SWAP2 SWAP1 POP SSTORE POP POP POP POP JUMP JUMPDEST PUSH1 0x1 SLOAD DUP2 JUMP JUMPDEST PUSH1 0x2 PUSH1 0x20 MSTORE DUP1 PUSH0 MSTORE PUSH1 0x40 PUSH0 KECCAK256 PUSH0 SWAP2 POP SWAP1 POP DUP1 PUSH0 ADD DUP1 SLOAD PUSH2 0x1E5 SWAP1 PUSH2 0xAEC JUMP JUMPDEST DUP1 PUSH1 0x1F ADD PUSH1 0x20 DUP1 SWAP2 DIV MUL PUSH1 0x20 ADD PUSH1 0x40 MLOAD SWAP1 DUP2 ADD PUSH1 0x40 MSTORE DUP1 SWAP3 SWAP2 SWAP1 DUP2 DUP2 MSTORE PUSH1 0x20 ADD DUP3 DUP1 SLOAD PUSH2 0x211 SWAP1 PUSH2 0xAEC JUMP JUMPDEST DUP1 ISZERO PUSH2 0x25C JUMPI DUP1 PUSH1 0x1F LT PUSH2 0x233 JUMPI PUSH2 0x100 DUP1 DUP4 SLOAD DIV MUL DUP4 MSTORE SWAP2 PUSH1 0x20 ADD SWAP2 PUSH2 0x25C JUMP JUMPDEST DUP3 ADD SWAP2 SWAP1 PUSH0 MSTORE PUSH1 0x20 PUSH0 KECCAK256 SWAP1 JUMPDEST DUP2 SLOAD DUP2 MSTORE SWAP1 PUSH1 0x1 ADD SWAP1 PUSH1 0x20 ADD DUP1 DUP4 GT PUSH2 0x23F JUMPI DUP3 SWAP1 SUB PUSH1 0x1F AND DUP3 ADD SWAP2 JUMPDEST POP POP POP POP POP SWAP1 DUP1 PUSH1 0x1 ADD SLOAD SWAP1 POP DUP3 JUMP JUMPDEST PUSH0 DUP1 SLOAD SWAP1 PUSH2 0x100 EXP SWAP1 DIV PUSH20 0xFFFFFFFFFFFFFFFFFFFFFFFFFFFFFFFFFFFFFFFF AND PUSH20 0xFFFFFFFFFFFFFFFFFFFFFFFFFFFFFFFFFFFFFFFF AND CALLER PUSH20 0xFFFFFFFFFFFFFFFFFFFFFFFFFFFFFFFFFFFFFFFF AND EQ PUSH2 0x2F9 JUMPI PUSH1 0x40 MLOAD PUSH32 0x8C379A000000000000000000000000000000000000000000000000000000000 DUP2 MSTORE PUSH1 0x4 ADD PUSH2 0x2F0 SWAP1 PUSH2 0xE6C JUMP JUMPDEST PUSH1 0x40 MLOAD DUP1 SWAP2 SUB SWAP1 REVERT JUMPDEST PUSH0 DUP2 PUSH20 0xFFFFFFFFFFFFFFFFFFFFFFFFFFFFFFFFFFFFFFFF AND DUP4 PUSH1 0x40 MLOAD PUSH2 0x31E SWAP1 PUSH2 0xEB7 JUMP JUMPDEST PUSH0 PUSH1 0x40 MLOAD DUP1 DUP4 SUB DUP2 DUP6 DUP8 GAS CALL SWAP3 POP POP POP RETURNDATASIZE DUP1 PUSH0 DUP2 EQ PUSH2 0x358 JUMPI PUSH1 0x40 MLOAD SWAP2 POP PUSH1 0x1F NOT PUSH1 0x3F RETURNDATASIZE ADD AND DUP3 ADD PUSH1 0x40 MSTORE RETURNDATASIZE DUP3 MSTORE RETURNDATASIZE PUSH0 PUSH1 0x20 DUP5 ADD RETURNDATACOPY PUSH2 0x35D JUMP JUMPDEST PUSH1 0x60 SWAP2 POP JUMPDEST POP POP SWAP1 POP DUP1 PUSH2 0x3A1 JUMPI PUSH1 0x40 MLOAD PUSH32 0x8C379A000000000000000000000000000000000000000000000000000000000 DUP2 MSTORE PUSH1 0x4 ADD PUSH2 0x398 SWAP1 PUSH2 0xF15 JUMP JUMPDEST PUSH1 0x40 MLOAD DUP1 SWAP2 SUB SWAP1 REVERT JUMPDEST POP POP POP JUMP JUMPDEST PUSH1 0x60 PUSH0 DUP1 SLOAD SWAP1 PUSH2 0x100 EXP SWAP1 DIV PUSH20 0xFFFFFFFFFFFFFFFFFFFFFFFFFFFFFFFFFFFFFFFF AND PUSH20 0xFFFFFFFFFFFFFFFFFFFFFFFFFFFFFFFFFFFFFFFF AND CALLER PUSH20 0xFFFFFFFFFFFFFFFFFFFFFFFFFFFFFFFFFFFFFFFF AND EQ PUSH2 0x435 JUMPI PUSH1 0x40 MLOAD PUSH32 0x8C379A000000000000000000000000000000000000000000000000000000000 DUP2 MSTORE PUSH1 0x4 ADD PUSH2 0x42C SWAP1 PUSH2 0xE6C JUMP JUMPDEST PUSH1 0x40 MLOAD DUP1 SWAP2 SUB SWAP1 REVERT JUMPDEST PUSH0 PUSH1 0x1 SLOAD PUSH8 0xFFFFFFFFFFFFFFFF DUP2 GT ISZERO PUSH2 0x452 JUMPI PUSH2 0x451 PUSH2 0x5E7 JUMP JUMPDEST JUMPDEST PUSH1 0x40 MLOAD SWAP1 DUP1 DUP3 MSTORE DUP1 PUSH1 0x20 MUL PUSH1 0x20 ADD DUP3 ADD PUSH1 0x40 MSTORE DUP1 ISZERO PUSH2 0x48B JUMPI DUP2 PUSH1 0x20 ADD JUMPDEST PUSH2 0x478 PUSH2 0x5A5 JUMP JUMPDEST DUP2 MSTORE PUSH1 0x20 ADD SWAP1 PUSH1 0x1 SWAP1 SUB SWAP1 DUP2 PUSH2 0x470 JUMPI SWAP1 POP JUMPDEST POP SWAP1 POP PUSH0 JUMPDEST PUSH1 0x1 SLOAD DUP2 LT ISZERO PUSH2 0x57A JUMPI PUSH1 0x2 PUSH0 DUP3 DUP2 MSTORE PUSH1 0x20 ADD SWAP1 DUP2 MSTORE PUSH1 0x20 ADD PUSH0 KECCAK256 PUSH1 0x40 MLOAD DUP1 PUSH1 0x40 ADD PUSH1 0x40 MSTORE SWAP1 DUP2 PUSH0 DUP3 ADD DUP1 SLOAD PUSH2 0x4C5 SWAP1 PUSH2 0xAEC JUMP JUMPDEST DUP1 PUSH1 0x1F ADD PUSH1 0x20 DUP1 SWAP2 DIV MUL PUSH1 0x20 ADD PUSH1 0x40 MLOAD SWAP1 DUP2 ADD PUSH1 0x40 MSTORE DUP1 SWAP3 SWAP2 SWAP1 DUP2 DUP2 MSTORE PUSH1 0x20 ADD DUP3 DUP1 SLOAD PUSH2 0x4F1 SWAP1 PUSH2 0xAEC JUMP JUMPDEST DUP1 ISZERO PUSH2 0x53C JUMPI DUP1 PUSH1 0x1F LT PUSH2 0x513 JUMPI PUSH2 0x100 DUP1 DUP4 SLOAD DIV MUL DUP4 MSTORE SWAP2 PUSH1 0x20 ADD SWAP2 PUSH2 0x53C JUMP JUMPDEST DUP3 ADD SWAP2 SWAP1 PUSH0 MSTORE PUSH1 0x20 PUSH0 KECCAK256 SWAP1 JUMPDEST DUP2 SLOAD DUP2 MSTORE SWAP1 PUSH1 0x1 ADD SWAP1 PUSH1 0x20 ADD DUP1 DUP4 GT PUSH2 0x51F JUMPI DUP3 SWAP1 SUB PUSH1 0x1F AND DUP3 ADD SWAP2 JUMPDEST POP POP POP POP POP DUP2 MSTORE PUSH1 0x20 ADD PUSH1 0x1 DUP3 ADD SLOAD DUP2 MSTORE POP POP DUP3 DUP3 DUP2 MLOAD DUP2 LT PUSH2 0x562 JUMPI PUSH2 0x561 PUSH2 0xF33 JUMP JUMPDEST JUMPDEST PUSH1 0x20 MUL PUSH1 0x20 ADD ADD DUP2 SWAP1 MSTORE POP DUP1 DUP1 PUSH1 0x1 ADD SWAP2 POP POP PUSH2 0x490 JUMP JUMPDEST POP DUP1 SWAP2 POP POP SWAP1 JUMP JUMPDEST PUSH0 DUP1 SLOAD SWAP1 PUSH2 0x100 EXP SWAP1 DIV PUSH20 0xFFFFFFFFFFFFFFFFFFFFFFFFFFFFFFFFFFFFFFFF AND DUP2 JUMP JUMPDEST PUSH1 0x40 MLOAD DUP1 PUSH1 0x40 ADD PUSH1 0x40 MSTORE DUP1 PUSH1 0x60 DUP2 MSTORE PUSH1 0x20 ADD PUSH0 DUP2 MSTORE POP SWAP1 JUMP JUMPDEST PUSH0 PUSH1 0x40 MLOAD SWAP1 POP SWAP1 JUMP JUMPDEST PUSH0 DUP1 REVERT JUMPDEST PUSH0 DUP1 REVERT JUMPDEST PUSH0 DUP1 REVERT JUMPDEST PUSH0 DUP1 REVERT JUMPDEST PUSH0 PUSH1 0x1F NOT PUSH1 0x1F DUP4 ADD AND SWAP1 POP SWAP2 SWAP1 POP JUMP JUMPDEST PUSH32 0x4E487B7100000000000000000000000000000000000000000000000000000000 PUSH0 MSTORE PUSH1 0x41 PUSH1 0x4 MSTORE PUSH1 0x24 PUSH0 REVERT JUMPDEST PUSH2 0x61D DUP3 PUSH2 0x5D7 JUMP JUMPDEST DUP2 ADD DUP2 DUP2 LT PUSH8 0xFFFFFFFFFFFFFFFF DUP3 GT OR ISZERO PUSH2 0x63C JUMPI PUSH2 0x63B PUSH2 0x5E7 JUMP JUMPDEST JUMPDEST DUP1 PUSH1 0x40 MSTORE POP POP POP JUMP JUMPDEST PUSH0 PUSH2 0x64E PUSH2 0x5BE JUMP JUMPDEST SWAP1 POP PUSH2 0x65A DUP3 DUP3 PUSH2 0x614 JUMP JUMPDEST SWAP2 SWAP1 POP JUMP JUMPDEST PUSH0 PUSH8 0xFFFFFFFFFFFFFFFF DUP3 GT ISZERO PUSH2 0x679 JUMPI PUSH2 0x678 PUSH2 0x5E7 JUMP JUMPDEST JUMPDEST PUSH2 0x682 DUP3 PUSH2 0x5D7 JUMP JUMPDEST SWAP1 POP PUSH1 0x20 DUP2 ADD SWAP1 POP SWAP2 SWAP1 POP JUMP JUMPDEST DUP3 DUP2 DUP4 CALLDATACOPY PUSH0 DUP4 DUP4 ADD MSTORE POP POP POP JUMP JUMPDEST PUSH0 PUSH2 0x6AF PUSH2 0x6AA DUP5 PUSH2 0x65F JUMP JUMPDEST PUSH2 0x645 JUMP JUMPDEST SWAP1 POP DUP3 DUP2 MSTORE PUSH1 0x20 DUP2 ADD DUP5 DUP5 DUP5 ADD GT ISZERO PUSH2 0x6CB JUMPI PUSH2 0x6CA PUSH2 0x5D3 JUMP JUMPDEST JUMPDEST PUSH2 0x6D6 DUP5 DUP3 DUP6 PUSH2 0x68F JUMP JUMPDEST POP SWAP4 SWAP3 POP POP POP JUMP JUMPDEST PUSH0 DUP3 PUSH1 0x1F DUP4 ADD SLT PUSH2 0x6F2 JUMPI PUSH2 0x6F1 PUSH2 0x5CF JUMP JUMPDEST JUMPDEST DUP2 CALLDATALOAD PUSH2 0x702 DUP5 DUP3 PUSH1 0x20 DUP7 ADD PUSH2 0x69D JUMP JUMPDEST SWAP2 POP POP SWAP3 SWAP2 POP POP JUMP JUMPDEST PUSH0 DUP2 SWAP1 POP SWAP2 SWAP1 POP JUMP JUMPDEST PUSH2 0x71D DUP2 PUSH2 0x70B JUMP JUMPDEST DUP2 EQ PUSH2 0x727 JUMPI PUSH0 DUP1 REVERT JUMPDEST POP JUMP JUMPDEST PUSH0 DUP2 CALLDATALOAD SWAP1 POP PUSH2 0x738 DUP2 PUSH2 0x714 JUMP JUMPDEST SWAP3 SWAP2 POP POP JUMP JUMPDEST PUSH0 DUP1 PUSH1 0x40 DUP4 DUP6 SUB SLT ISZERO PUSH2 0x754 JUMPI PUSH2 0x753 PUSH2 0x5C7 JUMP JUMPDEST JUMPDEST PUSH0 DUP4 ADD CALLDATALOAD PUSH8 0xFFFFFFFFFFFFFFFF DUP2 GT ISZERO PUSH2 0x771 JUMPI PUSH2 0x770 PUSH2 0x5CB JUMP JUMPDEST JUMPDEST PUSH2 0x77D DUP6 DUP3 DUP7 ADD PUSH2 0x6DE JUMP JUMPDEST SWAP3 POP POP PUSH1 0x20 PUSH2 0x78E DUP6 DUP3 DUP7 ADD PUSH2 0x72A JUMP JUMPDEST SWAP2 POP POP SWAP3 POP SWAP3 SWAP1 POP JUMP JUMPDEST PUSH2 0x7A1 DUP2 PUSH2 0x70B JUMP JUMPDEST DUP3 MSTORE POP POP JUMP JUMPDEST PUSH0 PUSH1 0x20 DUP3 ADD SWAP1 POP PUSH2 0x7BA PUSH0 DUP4 ADD DUP5 PUSH2 0x798 JUMP JUMPDEST SWAP3 SWAP2 POP POP JUMP JUMPDEST PUSH0 PUSH1 0x20 DUP3 DUP5 SUB SLT ISZERO PUSH2 0x7D5 JUMPI PUSH2 0x7D4 PUSH2 0x5C7 JUMP JUMPDEST JUMPDEST PUSH0 PUSH2 0x7E2 DUP5 DUP3 DUP6 ADD PUSH2 0x72A JUMP JUMPDEST SWAP2 POP POP SWAP3 SWAP2 POP POP JUMP JUMPDEST PUSH0 DUP2 MLOAD SWAP1 POP SWAP2 SWAP1 POP JUMP JUMPDEST PUSH0 DUP3 DUP3 MSTORE PUSH1 0x20 DUP3 ADD SWAP1 POP SWAP3 SWAP2 POP POP JUMP JUMPDEST PUSH0 JUMPDEST DUP4 DUP2 LT ISZERO PUSH2 0x822 JUMPI DUP1 DUP3 ADD MLOAD DUP2 DUP5 ADD MSTORE PUSH1 0x20 DUP2 ADD SWAP1 POP PUSH2 0x807 JUMP JUMPDEST PUSH0 DUP5 DUP5 ADD MSTORE POP POP POP POP JUMP JUMPDEST PUSH0 PUSH2 0x837 DUP3 PUSH2 0x7EB JUMP JUMPDEST PUSH2 0x841 DUP2 DUP6 PUSH2 0x7F5 JUMP JUMPDEST SWAP4 POP PUSH2 0x851 DUP2 DUP6 PUSH1 0x20 DUP7 ADD PUSH2 0x805 JUMP JUMPDEST PUSH2 0x85A DUP2 PUSH2 0x5D7 JUMP JUMPDEST DUP5 ADD SWAP2 POP POP SWAP3 SWAP2 POP POP JUMP JUMPDEST PUSH0 PUSH1 0x40 DUP3 ADD SWAP1 POP DUP2 DUP2 SUB PUSH0 DUP4 ADD MSTORE PUSH2 0x87D DUP2 DUP6 PUSH2 0x82D JUMP JUMPDEST SWAP1 POP PUSH2 0x88C PUSH1 0x20 DUP4 ADD DUP5 PUSH2 0x798 JUMP JUMPDEST SWAP4 SWAP3 POP POP POP JUMP JUMPDEST PUSH0 PUSH20 0xFFFFFFFFFFFFFFFFFFFFFFFFFFFFFFFFFFFFFFFF DUP3 AND SWAP1 POP SWAP2 SWAP1 POP JUMP JUMPDEST PUSH0 PUSH2 0x8BC DUP3 PUSH2 0x893 JUMP JUMPDEST SWAP1 POP SWAP2 SWAP1 POP JUMP JUMPDEST PUSH2 0x8CC DUP2 PUSH2 0x8B2 JUMP JUMPDEST DUP2 EQ PUSH2 0x8D6 JUMPI PUSH0 DUP1 REVERT JUMPDEST POP JUMP JUMPDEST PUSH0 DUP2 CALLDATALOAD SWAP1 POP PUSH2 0x8E7 DUP2 PUSH2 0x8C3 JUMP JUMPDEST SWAP3 SWAP2 POP POP JUMP JUMPDEST PUSH0 DUP1 PUSH1 0x40 DUP4 DUP6 SUB SLT ISZERO PUSH2 0x903 JUMPI PUSH2 0x902 PUSH2 0x5C7 JUMP JUMPDEST JUMPDEST PUSH0 PUSH2 0x910 DUP6 DUP3 DUP7 ADD PUSH2 0x72A JUMP JUMPDEST SWAP3 POP POP PUSH1 0x20 PUSH2 0x921 DUP6 DUP3 DUP7 ADD PUSH2 0x8D9 JUMP JUMPDEST SWAP2 POP POP SWAP3 POP SWAP3 SWAP1 POP JUMP JUMPDEST PUSH0 DUP2 MLOAD SWAP1 POP SWAP2 SWAP1 POP JUMP JUMPDEST PUSH0 DUP3 DUP3 MSTORE PUSH1 0x20 DUP3 ADD SWAP1 POP SWAP3 SWAP2 POP POP JUMP JUMPDEST PUSH0 DUP2 SWAP1 POP PUSH1 0x20 DUP3 ADD SWAP1 POP SWAP2 SWAP1 POP JUMP JUMPDEST PUSH0 DUP3 DUP3 MSTORE PUSH1 0x20 DUP3 ADD SWAP1 POP SWAP3 SWAP2 POP POP JUMP JUMPDEST PUSH0 PUSH2 0x96E DUP3 PUSH2 0x7EB JUMP JUMPDEST PUSH2 0x978 DUP2 DUP6 PUSH2 0x954 JUMP JUMPDEST SWAP4 POP PUSH2 0x988 DUP2 DUP6 PUSH1 0x20 DUP7 ADD PUSH2 0x805 JUMP JUMPDEST PUSH2 0x991 DUP2 PUSH2 0x5D7 JUMP JUMPDEST DUP5 ADD SWAP2 POP POP SWAP3 SWAP2 POP POP JUMP JUMPDEST PUSH2 0x9A5 DUP2 PUSH2 0x70B JUMP JUMPDEST DUP3 MSTORE POP POP JUMP JUMPDEST PUSH0 PUSH1 0x40 DUP4 ADD PUSH0 DUP4 ADD MLOAD DUP5 DUP3 SUB PUSH0 DUP7 ADD MSTORE PUSH2 0x9C5 DUP3 DUP3 PUSH2 0x964 JUMP JUMPDEST SWAP2 POP POP PUSH1 0x20 DUP4 ADD MLOAD PUSH2 0x9DA PUSH1 0x20 DUP7 ADD DUP3 PUSH2 0x99C JUMP JUMPDEST POP DUP1 SWAP2 POP POP SWAP3 SWAP2 POP POP JUMP JUMPDEST PUSH0 PUSH2 0x9F0 DUP4 DUP4 PUSH2 0x9AB JUMP JUMPDEST SWAP1 POP SWAP3 SWAP2 POP POP JUMP JUMPDEST PUSH0 PUSH1 0x20 DUP3 ADD SWAP1 POP SWAP2 SWAP1 POP JUMP JUMPDEST PUSH0 PUSH2 0xA0E DUP3 PUSH2 0x92B JUMP JUMPDEST PUSH2 0xA18 DUP2 DUP6 PUSH2 0x935 JUMP JUMPDEST SWAP4 POP DUP4 PUSH1 0x20 DUP3 MUL DUP6 ADD PUSH2 0xA2A DUP6 PUSH2 0x945 JUMP JUMPDEST DUP1 PUSH0 JUMPDEST DUP6 DUP2 LT ISZERO PUSH2 0xA65 JUMPI DUP5 DUP5 SUB DUP10 MSTORE DUP2 MLOAD PUSH2 0xA46 DUP6 DUP3 PUSH2 0x9E5 JUMP JUMPDEST SWAP5 POP PUSH2 0xA51 DUP4 PUSH2 0x9F8 JUMP JUMPDEST SWAP3 POP PUSH1 0x20 DUP11 ADD SWAP10 POP POP PUSH1 0x1 DUP2 ADD SWAP1 POP PUSH2 0xA2D JUMP JUMPDEST POP DUP3 SWAP8 POP DUP8 SWAP6 POP POP POP POP POP POP SWAP3 SWAP2 POP POP JUMP JUMPDEST PUSH0 PUSH1 0x20 DUP3 ADD SWAP1 POP DUP2 DUP2 SUB PUSH0 DUP4 ADD MSTORE PUSH2 0xA8F DUP2 DUP5 PUSH2 0xA04 JUMP JUMPDEST SWAP1 POP SWAP3 SWAP2 POP POP JUMP JUMPDEST PUSH2 0xAA0 DUP2 PUSH2 0x8B2 JUMP JUMPDEST DUP3 MSTORE POP POP JUMP JUMPDEST PUSH0 PUSH1 0x20 DUP3 ADD SWAP1 POP PUSH2 0xAB9 PUSH0 DUP4 ADD DUP5 PUSH2 0xA97 JUMP JUMPDEST SWAP3 SWAP2 POP POP JUMP JUMPDEST PUSH32 0x4E487B7100000000000000000000000000000000000000000000000000000000 PUSH0 MSTORE PUSH1 0x22 PUSH1 0x4 MSTORE PUSH1 0x24 PUSH0 REVERT JUMPDEST PUSH0 PUSH1 0x2 DUP3 DIV SWAP1 POP PUSH1 0x1 DUP3 AND DUP1 PUSH2 0xB03 JUMPI PUSH1 0x7F DUP3 AND SWAP2 POP JUMPDEST PUSH1 0x20 DUP3 LT DUP2 SUB PUSH2 0xB16 JUMPI PUSH2 0xB15 PUSH2 0xABF JUMP JUMPDEST JUMPDEST POP SWAP2 SWAP1 POP JUMP JUMPDEST PUSH0 DUP2 SWAP1 POP DUP2 PUSH0 MSTORE PUSH1 0x20 PUSH0 KECCAK256 SWAP1 POP SWAP2 SWAP1 POP JUMP JUMPDEST PUSH0 PUSH1 0x20 PUSH1 0x1F DUP4 ADD DIV SWAP1 POP SWAP2 SWAP1 POP JUMP JUMPDEST PUSH0 DUP3 DUP3 SHL SWAP1 POP SWAP3 SWAP2 POP POP JUMP JUMPDEST PUSH0 PUSH1 0x8 DUP4 MUL PUSH2 0xB78 PUSH32 0xFFFFFFFFFFFFFFFFFFFFFFFFFFFFFFFFFFFFFFFFFFFFFFFFFFFFFFFFFFFFFFFF DUP3 PUSH2 0xB3D JUMP JUMPDEST PUSH2 0xB82 DUP7 DUP4 PUSH2 0xB3D JUMP JUMPDEST SWAP6 POP DUP1 NOT DUP5 AND SWAP4 POP DUP1 DUP7 AND DUP5 OR SWAP3 POP POP POP SWAP4 SWAP3 POP POP POP JUMP JUMPDEST PUSH0 DUP2 SWAP1 POP SWAP2 SWAP1 POP JUMP JUMPDEST PUSH0 PUSH2 0xBBD PUSH2 0xBB8 PUSH2 0xBB3 DUP5 PUSH2 0x70B JUMP JUMPDEST PUSH2 0xB9A JUMP JUMPDEST PUSH2 0x70B JUMP JUMPDEST SWAP1 POP SWAP2 SWAP1 POP JUMP JUMPDEST PUSH0 DUP2 SWAP1 POP SWAP2 SWAP1 POP JUMP JUMPDEST PUSH2 0xBD6 DUP4 PUSH2 0xBA3 JUMP JUMPDEST PUSH2 0xBEA PUSH2 0xBE2 DUP3 PUSH2 0xBC4 JUMP JUMPDEST DUP5 DUP5 SLOAD PUSH2 0xB49 JUMP JUMPDEST DUP3 SSTORE POP POP POP POP JUMP JUMPDEST PUSH0 SWAP1 JUMP JUMPDEST PUSH2 0xBFE PUSH2 0xBF2 JUMP JUMPDEST PUSH2 0xC09 DUP2 DUP5 DUP5 PUSH2 0xBCD JUMP JUMPDEST POP POP POP JUMP JUMPDEST JUMPDEST DUP2 DUP2 LT ISZERO PUSH2 0xC2C JUMPI PUSH2 0xC21 PUSH0 DUP3 PUSH2 0xBF6 JUMP JUMPDEST PUSH1 0x1 DUP2 ADD SWAP1 POP PUSH2 0xC0F JUMP JUMPDEST POP POP JUMP JUMPDEST PUSH1 0x1F DUP3 GT ISZERO PUSH2 0xC71 JUMPI PUSH2 0xC42 DUP2 PUSH2 0xB1C JUMP JUMPDEST PUSH2 0xC4B DUP5 PUSH2 0xB2E JUMP JUMPDEST DUP2 ADD PUSH1 0x20 DUP6 LT ISZERO PUSH2 0xC5A JUMPI DUP2 SWAP1 POP JUMPDEST PUSH2 0xC6E PUSH2 0xC66 DUP6 PUSH2 0xB2E JUMP JUMPDEST DUP4 ADD DUP3 PUSH2 0xC0E JUMP JUMPDEST POP POP JUMPDEST POP POP POP JUMP JUMPDEST PUSH0 DUP3 DUP3 SHR SWAP1 POP SWAP3 SWAP2 POP POP JUMP JUMPDEST PUSH0 PUSH2 0xC91 PUSH0 NOT DUP5 PUSH1 0x8 MUL PUSH2 0xC76 JUMP JUMPDEST NOT DUP1 DUP4 AND SWAP2 POP POP SWAP3 SWAP2 POP POP JUMP JUMPDEST PUSH0 PUSH2 0xCA9 DUP4 DUP4 PUSH2 0xC82 JUMP JUMPDEST SWAP2 POP DUP3 PUSH1 0x2 MUL DUP3 OR SWAP1 POP SWAP3 SWAP2 POP POP JUMP JUMPDEST PUSH2 0xCC2 DUP3 PUSH2 0x7EB JUMP JUMPDEST PUSH8 0xFFFFFFFFFFFFFFFF DUP2 GT ISZERO PUSH2 0xCDB JUMPI PUSH2 0xCDA PUSH2 0x5E7 JUMP JUMPDEST JUMPDEST PUSH2 0xCE5 DUP3 SLOAD PUSH2 0xAEC JUMP JUMPDEST PUSH2 0xCF0 DUP3 DUP3 DUP6 PUSH2 0xC30 JUMP JUMPDEST PUSH0 PUSH1 0x20 SWAP1 POP PUSH1 0x1F DUP4 GT PUSH1 0x1 DUP2 EQ PUSH2 0xD21 JUMPI PUSH0 DUP5 ISZERO PUSH2 0xD0F JUMPI DUP3 DUP8 ADD MLOAD SWAP1 POP JUMPDEST PUSH2 0xD19 DUP6 DUP3 PUSH2 0xC9E JUMP JUMPDEST DUP7 SSTORE POP PUSH2 0xD80 JUMP JUMPDEST PUSH1 0x1F NOT DUP5 AND PUSH2 0xD2F DUP7 PUSH2 0xB1C JUMP JUMPDEST PUSH0 JUMPDEST DUP3 DUP2 LT ISZERO PUSH2 0xD56 JUMPI DUP5 DUP10 ADD MLOAD DUP3 SSTORE PUSH1 0x1 DUP3 ADD SWAP2 POP PUSH1 0x20 DUP6 ADD SWAP5 POP PUSH1 0x20 DUP2 ADD SWAP1 POP PUSH2 0xD31 JUMP JUMPDEST DUP7 DUP4 LT ISZERO PUSH2 0xD73 JUMPI DUP5 DUP10 ADD MLOAD PUSH2 0xD6F PUSH1 0x1F DUP10 AND DUP3 PUSH2 0xC82 JUMP JUMPDEST DUP4 SSTORE POP JUMPDEST PUSH1 0x1 PUSH1 0x2 DUP9 MUL ADD DUP9 SSTORE POP POP POP JUMPDEST POP POP POP POP POP POP JUMP JUMPDEST PUSH32 0x4E487B7100000000000000000000000000000000000000000000000000000000 PUSH0 MSTORE PUSH1 0x11 PUSH1 0x4 MSTORE PUSH1 0x24 PUSH0 REVERT JUMPDEST PUSH0 PUSH2 0xDBF DUP3 PUSH2 0x70B JUMP JUMPDEST SWAP2 POP PUSH32 0xFFFFFFFFFFFFFFFFFFFFFFFFFFFFFFFFFFFFFFFFFFFFFFFFFFFFFFFFFFFFFFFF DUP3 SUB PUSH2 0xDF1 JUMPI PUSH2 0xDF0 PUSH2 0xD88 JUMP JUMPDEST JUMPDEST PUSH1 0x1 DUP3 ADD SWAP1 POP SWAP2 SWAP1 POP JUMP JUMPDEST PUSH32 0x466F72206465706F736974206F7220776974686472617720457468657220796F PUSH0 DUP3 ADD MSTORE PUSH32 0x75206D757374206265207468652061646D696E00000000000000000000000000 PUSH1 0x20 DUP3 ADD MSTORE POP JUMP JUMPDEST PUSH0 PUSH2 0xE56 PUSH1 0x33 DUP4 PUSH2 0x7F5 JUMP JUMPDEST SWAP2 POP PUSH2 0xE61 DUP3 PUSH2 0xDFC JUMP JUMPDEST PUSH1 0x40 DUP3 ADD SWAP1 POP SWAP2 SWAP1 POP JUMP JUMPDEST PUSH0 PUSH1 0x20 DUP3 ADD SWAP1 POP DUP2 DUP2 SUB PUSH0 DUP4 ADD MSTORE PUSH2 0xE83 DUP2 PUSH2 0xE4A JUMP JUMPDEST SWAP1 POP SWAP2 SWAP1 POP JUMP JUMPDEST PUSH0 DUP2 SWAP1 POP SWAP3 SWAP2 POP POP JUMP JUMPDEST POP JUMP JUMPDEST PUSH0 PUSH2 0xEA2 PUSH0 DUP4 PUSH2 0xE8A JUMP JUMPDEST SWAP2 POP PUSH2 0xEAD DUP3 PUSH2 0xE94 JUMP JUMPDEST PUSH0 DUP3 ADD SWAP1 POP SWAP2 SWAP1 POP JUMP JUMPDEST PUSH0 PUSH2 0xEC1 DUP3 PUSH2 0xE97 JUMP JUMPDEST SWAP2 POP DUP2 SWAP1 POP SWAP2 SWAP1 POP JUMP JUMPDEST PUSH32 0x4661696C656420746F2077697468647261772045746865720000000000000000 PUSH0 DUP3 ADD MSTORE POP JUMP JUMPDEST PUSH0 PUSH2 0xEFF PUSH1 0x18 DUP4 PUSH2 0x7F5 JUMP JUMPDEST SWAP2 POP PUSH2 0xF0A DUP3 PUSH2 0xECB JUMP JUMPDEST PUSH1 0x20 DUP3 ADD SWAP1 POP SWAP2 SWAP1 POP JUMP JUMPDEST PUSH0 PUSH1 0x20 DUP3 ADD SWAP1 POP DUP2 DUP2 SUB PUSH0 DUP4 ADD MSTORE PUSH2 0xF2C DUP2 PUSH2 0xEF3 JUMP JUMPDEST SWAP1 POP SWAP2 SWAP1 POP JUMP JUMPDEST PUSH32 0x4E487B7100000000000000000000000000000000000000000000000000000000 PUSH0 MSTORE PUSH1 0x32 PUSH1 0x4 MSTORE PUSH1 0x24 PUSH0 REVERT INVALID LOG2 PUSH5 0x6970667358 0x22 SLT KECCAK256 MLOAD TIMESTAMP 0xE2 PUSH22 0x31FA5F59CC4CDBDBB86B3B00481B844EC9E8E97719E7 0xD4 DUP9 0xCE DIV SWAP4 DUP13 PUSH5 0x736F6C6343 STOP ADDMOD XOR STOP CALLER "
				},
				"gasEstimates": {
					"creation": {
						"codeDepositCost": "798000",
						"executionCost": "infinite",
						"totalCost": "infinite"
					},
					"external": {
						"addEther(string,uint256)": "infinite",
						"admin()": "2593",
						"counter()": "2425",
						"getContributions()": "infinite",
						"savingsList(uint256)": "infinite",
						"withdrawEther(uint256,address)": "infinite"
					}
				},
				"methodIdentifiers": {
					"addEther(string,uint256)": "3b3f07dd",
					"admin()": "f851a440",
					"counter()": "61bc221a",
					"getContributions()": "dda0a81a",
					"savingsList(uint256)": "b077a31f",
					"withdrawEther(uint256,address)": "ce56c454"
				}
			},
			"storageLayout": {
				"storage": [
					{
						"astId": 3,
						"contract": "contracts/MoneySaver.sol:MoneySaver",
						"label": "admin",
						"offset": 0,
						"slot": "0",
						"type": "t_address"
					},
					{
						"astId": 5,
						"contract": "contracts/MoneySaver.sol:MoneySaver",
						"label": "counter",
						"offset": 0,
						"slot": "1",
						"type": "t_uint256"
					},
					{
						"astId": 15,
						"contract": "contracts/MoneySaver.sol:MoneySaver",
						"label": "savingsList",
						"offset": 0,
						"slot": "2",
						"type": "t_mapping(t_uint256,t_struct(Saver)10_storage)"
					}
				],
				"types": {
					"t_address": {
						"encoding": "inplace",
						"label": "address",
						"numberOfBytes": "20"
					},
					"t_mapping(t_uint256,t_struct(Saver)10_storage)": {
						"encoding": "mapping",
						"key": "t_uint256",
						"label": "mapping(uint256 => struct MoneySaver.Saver)",
						"numberOfBytes": "32",
						"value": "t_struct(Saver)10_storage"
					},
					"t_string_storage": {
						"encoding": "bytes",
						"label": "string",
						"numberOfBytes": "32"
					},
					"t_struct(Saver)10_storage": {
						"encoding": "inplace",
						"label": "struct MoneySaver.Saver",
						"members": [
							{
								"astId": 7,
								"contract": "contracts/MoneySaver.sol:MoneySaver",
								"label": "name",
								"offset": 0,
								"slot": "0",
								"type": "t_string_storage"
							},
							{
								"astId": 9,
								"contract": "contracts/MoneySaver.sol:MoneySaver",
								"label": "amount",
								"offset": 0,
								"slot": "1",
								"type": "t_uint256"
							}
						],
						"numberOfBytes": "64"
					},
					"t_uint256": {
						"encoding": "inplace",
						"label": "uint256",
						"numberOfBytes": "32"
					}
				}
			},
			"userdoc": {
				"kind": "user",
				"methods": {},
				"version": 1
			}
		}
	}
}